{
  "contractName": "FlowerToken",
  "abi": [
    {
      "inputs": [],
      "stateMutability": "nonpayable",
      "type": "constructor"
    },
    {
      "anonymous": false,
      "inputs": [
        {
          "indexed": true,
          "internalType": "address",
          "name": "owner",
          "type": "address"
        },
        {
          "indexed": true,
          "internalType": "address",
          "name": "approved",
          "type": "address"
        },
        {
          "indexed": true,
          "internalType": "uint256",
          "name": "tokenId",
          "type": "uint256"
        }
      ],
      "name": "Approval",
      "type": "event"
    },
    {
      "anonymous": false,
      "inputs": [
        {
          "indexed": true,
          "internalType": "address",
          "name": "owner",
          "type": "address"
        },
        {
          "indexed": true,
          "internalType": "address",
          "name": "operator",
          "type": "address"
        },
        {
          "indexed": false,
          "internalType": "bool",
          "name": "approved",
          "type": "bool"
        }
      ],
      "name": "ApprovalForAll",
      "type": "event"
    },
    {
      "anonymous": false,
      "inputs": [
        {
          "indexed": false,
          "internalType": "address",
          "name": "",
          "type": "address"
        },
        {
          "indexed": false,
          "internalType": "address",
          "name": "",
          "type": "address"
        }
      ],
      "name": "DebugEvent",
      "type": "event"
    },
    {
      "anonymous": false,
      "inputs": [
        {
          "indexed": false,
          "internalType": "address",
          "name": "",
          "type": "address"
        },
        {
          "indexed": false,
          "internalType": "uint256",
          "name": "",
          "type": "uint256"
        }
      ],
      "name": "FlowerPlanted",
      "type": "event"
    },
    {
      "anonymous": false,
      "inputs": [
        {
          "indexed": true,
          "internalType": "address",
          "name": "from",
          "type": "address"
        },
        {
          "indexed": true,
          "internalType": "address",
          "name": "to",
          "type": "address"
        },
        {
          "indexed": true,
          "internalType": "uint256",
          "name": "tokenId",
          "type": "uint256"
        }
      ],
      "name": "Transfer",
      "type": "event"
    },
    {
      "inputs": [
        {
          "internalType": "address",
          "name": "to",
          "type": "address"
        },
        {
          "internalType": "uint256",
          "name": "tokenId",
          "type": "uint256"
        }
      ],
      "name": "approve",
      "outputs": [],
      "stateMutability": "nonpayable",
      "type": "function"
    },
    {
      "inputs": [
        {
          "internalType": "address",
          "name": "owner",
          "type": "address"
        }
      ],
      "name": "balanceOf",
      "outputs": [
        {
          "internalType": "uint256",
          "name": "",
          "type": "uint256"
        }
      ],
      "stateMutability": "view",
      "type": "function"
    },
    {
      "inputs": [
        {
          "internalType": "uint256",
          "name": "",
          "type": "uint256"
        }
      ],
      "name": "flowers",
      "outputs": [
        {
          "internalType": "uint256",
          "name": "dna",
          "type": "uint256"
        }
      ],
      "stateMutability": "view",
      "type": "function"
    },
    {
      "inputs": [
        {
          "internalType": "uint256",
          "name": "tokenId",
          "type": "uint256"
        }
      ],
      "name": "getApproved",
      "outputs": [
        {
          "internalType": "address",
          "name": "",
          "type": "address"
        }
      ],
      "stateMutability": "view",
      "type": "function"
    },
    {
      "inputs": [
        {
          "internalType": "address",
          "name": "owner",
          "type": "address"
        },
        {
          "internalType": "address",
          "name": "operator",
          "type": "address"
        }
      ],
      "name": "isApprovedForAll",
      "outputs": [
        {
          "internalType": "bool",
          "name": "",
          "type": "bool"
        }
      ],
      "stateMutability": "view",
      "type": "function"
    },
    {
      "inputs": [],
      "name": "name",
      "outputs": [
        {
          "internalType": "string",
          "name": "",
          "type": "string"
        }
      ],
      "stateMutability": "view",
      "type": "function"
    },
    {
      "inputs": [
        {
          "internalType": "uint256",
          "name": "tokenId",
          "type": "uint256"
        }
      ],
      "name": "ownerOf",
      "outputs": [
        {
          "internalType": "address",
          "name": "",
          "type": "address"
        }
      ],
      "stateMutability": "view",
      "type": "function"
    },
    {
      "inputs": [
        {
          "internalType": "address",
          "name": "from",
          "type": "address"
        },
        {
          "internalType": "address",
          "name": "to",
          "type": "address"
        },
        {
          "internalType": "uint256",
          "name": "tokenId",
          "type": "uint256"
        }
      ],
      "name": "safeTransferFrom",
      "outputs": [],
      "stateMutability": "nonpayable",
      "type": "function"
    },
    {
      "inputs": [
        {
          "internalType": "address",
          "name": "from",
          "type": "address"
        },
        {
          "internalType": "address",
          "name": "to",
          "type": "address"
        },
        {
          "internalType": "uint256",
          "name": "tokenId",
          "type": "uint256"
        },
        {
          "internalType": "bytes",
          "name": "_data",
          "type": "bytes"
        }
      ],
      "name": "safeTransferFrom",
      "outputs": [],
      "stateMutability": "nonpayable",
      "type": "function"
    },
    {
      "inputs": [
        {
          "internalType": "address",
          "name": "operator",
          "type": "address"
        },
        {
          "internalType": "bool",
          "name": "approved",
          "type": "bool"
        }
      ],
      "name": "setApprovalForAll",
      "outputs": [],
      "stateMutability": "nonpayable",
      "type": "function"
    },
    {
      "inputs": [
        {
          "internalType": "bytes4",
          "name": "interfaceId",
          "type": "bytes4"
        }
      ],
      "name": "supportsInterface",
      "outputs": [
        {
          "internalType": "bool",
          "name": "",
          "type": "bool"
        }
      ],
      "stateMutability": "view",
      "type": "function"
    },
    {
      "inputs": [],
      "name": "symbol",
      "outputs": [
        {
          "internalType": "string",
          "name": "",
          "type": "string"
        }
      ],
      "stateMutability": "view",
      "type": "function"
    },
    {
      "inputs": [
        {
          "internalType": "uint256",
          "name": "tokenId",
          "type": "uint256"
        }
      ],
      "name": "tokenURI",
      "outputs": [
        {
          "internalType": "string",
          "name": "",
          "type": "string"
        }
      ],
      "stateMutability": "view",
      "type": "function"
    },
    {
      "inputs": [
        {
          "internalType": "address",
          "name": "from",
          "type": "address"
        },
        {
          "internalType": "address",
          "name": "to",
          "type": "address"
        },
        {
          "internalType": "uint256",
          "name": "tokenId",
          "type": "uint256"
        }
      ],
      "name": "transferFrom",
      "outputs": [],
      "stateMutability": "nonpayable",
      "type": "function"
    },
    {
      "inputs": [
        {
          "internalType": "address",
          "name": "_seedTokenAddress",
          "type": "address"
        }
      ],
      "name": "setSeedTokenAddress",
      "outputs": [],
      "stateMutability": "nonpayable",
      "type": "function"
    },
    {
      "inputs": [
        {
          "internalType": "address",
          "name": "tokenOwner",
          "type": "address"
        }
      ],
      "name": "plant",
      "outputs": [],
      "stateMutability": "nonpayable",
      "type": "function"
    },
    {
      "inputs": [
        {
          "internalType": "address",
          "name": "tokenOwner",
          "type": "address"
        }
      ],
      "name": "getAllFlowers",
      "outputs": [
        {
          "internalType": "uint256[]",
          "name": "",
          "type": "uint256[]"
        }
      ],
      "stateMutability": "view",
      "type": "function"
    }
  ],
  "bytecode": "0x60806040526103e86007553480156200001757600080fd5b506040518060400160405280600b81526020017f466c6f776572546f6b656e0000000000000000000000000000000000000000008152506040518060400160405280600481526020017f464c544e0000000000000000000000000000000000000000000000000000000081525081600090805190602001906200009c929190620000be565b508060019080519060200190620000b5929190620000be565b505050620001d3565b828054620000cc906200019d565b90600052602060002090601f016020900481019282620000f057600085556200013c565b82601f106200010b57805160ff19168380011785556200013c565b828001600101855582156200013c579182015b828111156200013b5782518255916020019190600101906200011e565b5b5090506200014b91906200014f565b5090565b5b808211156200016a57600081600090555060010162000150565b5090565b7f4e487b7100000000000000000000000000000000000000000000000000000000600052602260045260246000fd5b60006002820490506001821680620001b657607f821691505b60208210811415620001cd57620001cc6200016e565b5b50919050565b612c0f80620001e36000396000f3fe608060405234801561001057600080fd5b506004361061010b5760003560e01c80636e2b568a116100a2578063af77509211610071578063af775092146102dc578063b88d4fde146102f8578063c87b56dd14610314578063da0d52d914610344578063e985e9c5146103605761010b565b80636e2b568a1461024257806370a082311461027257806395d89b41146102a2578063a22cb465146102c05761010b565b806323b872dd116100de57806323b872dd146101aa57806329a1ed3f146101c657806342842e0e146101f65780636352211e146102125761010b565b806301ffc9a71461011057806306fdde0314610140578063081812fc1461015e578063095ea7b31461018e575b600080fd5b61012a600480360381019061012591906119f4565b610390565b6040516101379190611a3c565b60405180910390f35b610148610472565b6040516101559190611af0565b60405180910390f35b61017860048036038101906101739190611b48565b610504565b6040516101859190611bb6565b60405180910390f35b6101a860048036038101906101a39190611bfd565b610589565b005b6101c460048036038101906101bf9190611c3d565b6106a1565b005b6101e060048036038101906101db9190611c90565b610701565b6040516101ed9190611d7b565b60405180910390f35b610210600480360381019061020b9190611c3d565b610804565b005b61022c60048036038101906102279190611b48565b610824565b6040516102399190611bb6565b60405180910390f35b61025c60048036038101906102579190611b48565b6108d6565b6040516102699190611dac565b60405180910390f35b61028c60048036038101906102879190611c90565b610900565b6040516102999190611dac565b60405180910390f35b6102aa6109b8565b6040516102b79190611af0565b60405180910390f35b6102da60048036038101906102d59190611df3565b610a4a565b005b6102f660048036038101906102f19190611c90565b610a60565b005b610312600480360381019061030d9190611f68565b610b67565b005b61032e60048036038101906103299190611b48565b610bc9565b60405161033b9190611af0565b60405180910390f35b61035e60048036038101906103599190611c90565b610c70565b005b61037a60048036038101906103759190611feb565b610cb4565b6040516103879190611a3c565b60405180910390f35b60007f80ac58cd000000000000000000000000000000000000000000000000000000007bffffffffffffffffffffffffffffffffffffffffffffffffffffffff1916827bffffffffffffffffffffffffffffffffffffffffffffffffffffffff1916148061045b57507f5b5e139f000000000000000000000000000000000000000000000000000000007bffffffffffffffffffffffffffffffffffffffffffffffffffffffff1916827bffffffffffffffffffffffffffffffffffffffffffffffffffffffff1916145b8061046b575061046a82610d48565b5b9050919050565b6060600080546104819061205a565b80601f01602080910402602001604051908101604052809291908181526020018280546104ad9061205a565b80156104fa5780601f106104cf576101008083540402835291602001916104fa565b820191906000526020600020905b8154815290600101906020018083116104dd57829003601f168201915b5050505050905090565b600061050f82610db2565b61054e576040517f08c379a0000000000000000000000000000000000000000000000000000000008152600401610545906120fe565b60405180910390fd5b6004600083815260200190815260200160002060009054906101000a900473ffffffffffffffffffffffffffffffffffffffff169050919050565b600061059482610824565b90508073ffffffffffffffffffffffffffffffffffffffff168373ffffffffffffffffffffffffffffffffffffffff161415610605576040517f08c379a00000000000000000000000000000000000000000000000000000000081526004016105fc90612190565b60405180910390fd5b8073ffffffffffffffffffffffffffffffffffffffff16610624610e1e565b73ffffffffffffffffffffffffffffffffffffffff16148061065357506106528161064d610e1e565b610cb4565b5b610692576040517f08c379a000000000000000000000000000000000000000000000000000000000815260040161068990612222565b60405180910390fd5b61069c8383610e26565b505050565b6106b26106ac610e1e565b82610edf565b6106f1576040517f08c379a00000000000000000000000000000000000000000000000000000000081526004016106e8906122b4565b60405180910390fd5b6106fc838383610fbd565b505050565b6060600061070e83610900565b905060008167ffffffffffffffff81111561072c5761072b611e3d565b5b60405190808252806020026020018201604052801561075a5781602001602082028036833780820191505090505b5090506000805b6008805490508110156107f8578573ffffffffffffffffffffffffffffffffffffffff1661078e82610824565b73ffffffffffffffffffffffffffffffffffffffff1614156107d957808383815181106107be576107bd6122d4565b5b60200260200101818152505081806107d590612332565b9250505b8382106107e5576107f8565b80806107f090612332565b915050610761565b50819350505050919050565b61081f83838360405180602001604052806000815250610b67565b505050565b6000806002600084815260200190815260200160002060009054906101000a900473ffffffffffffffffffffffffffffffffffffffff169050600073ffffffffffffffffffffffffffffffffffffffff168173ffffffffffffffffffffffffffffffffffffffff1614156108cd576040517f08c379a00000000000000000000000000000000000000000000000000000000081526004016108c4906123ed565b60405180910390fd5b80915050919050565b600881815481106108e657600080fd5b906000526020600020016000915090508060000154905081565b60008073ffffffffffffffffffffffffffffffffffffffff168273ffffffffffffffffffffffffffffffffffffffff161415610971576040517f08c379a00000000000000000000000000000000000000000000000000000000081526004016109689061247f565b60405180910390fd5b600360008373ffffffffffffffffffffffffffffffffffffffff1673ffffffffffffffffffffffffffffffffffffffff168152602001908152602001600020549050919050565b6060600180546109c79061205a565b80601f01602080910402602001604051908101604052809291908181526020018280546109f39061205a565b8015610a405780601f10610a1557610100808354040283529160200191610a40565b820191906000526020600020905b815481529060010190602001808311610a2357829003601f168201915b5050505050905090565b610a5c610a55610e1e565b8383611219565b5050565b600660009054906101000a900473ffffffffffffffffffffffffffffffffffffffff1673ffffffffffffffffffffffffffffffffffffffff163373ffffffffffffffffffffffffffffffffffffffff1614610aba57600080fd5b60006040518060200160405280610ad084611386565b81525090506008819080600181540180825580915050600190039060005260206000200160009091909190915060008201518160000155505060006001600880549050610b1d919061249f565b9050610b2983826113cd565b7ff6b78b0a72f2114b727be945f413099ee159c52f2e57e9210bb3c2ae6d2f8f663382604051610b5a9291906124d3565b60405180910390a1505050565b610b78610b72610e1e565b83610edf565b610bb7576040517f08c379a0000000000000000000000000000000000000000000000000000000008152600401610bae906122b4565b60405180910390fd5b610bc3848484846113eb565b50505050565b6060610bd482610db2565b610c13576040517f08c379a0000000000000000000000000000000000000000000000000000000008152600401610c0a9061256e565b60405180910390fd5b6000610c1d611447565b90506000815111610c3d5760405180602001604052806000815250610c68565b80610c478461145e565b604051602001610c589291906125ca565b6040516020818303038152906040525b915050919050565b80600660006101000a81548173ffffffffffffffffffffffffffffffffffffffff021916908373ffffffffffffffffffffffffffffffffffffffff16021790555050565b6000600560008473ffffffffffffffffffffffffffffffffffffffff1673ffffffffffffffffffffffffffffffffffffffff16815260200190815260200160002060008373ffffffffffffffffffffffffffffffffffffffff1673ffffffffffffffffffffffffffffffffffffffff16815260200190815260200160002060009054906101000a900460ff16905092915050565b60007f01ffc9a7000000000000000000000000000000000000000000000000000000007bffffffffffffffffffffffffffffffffffffffffffffffffffffffff1916827bffffffffffffffffffffffffffffffffffffffffffffffffffffffff1916149050919050565b60008073ffffffffffffffffffffffffffffffffffffffff166002600084815260200190815260200160002060009054906101000a900473ffffffffffffffffffffffffffffffffffffffff1673ffffffffffffffffffffffffffffffffffffffff1614159050919050565b600033905090565b816004600083815260200190815260200160002060006101000a81548173ffffffffffffffffffffffffffffffffffffffff021916908373ffffffffffffffffffffffffffffffffffffffff160217905550808273ffffffffffffffffffffffffffffffffffffffff16610e9983610824565b73ffffffffffffffffffffffffffffffffffffffff167f8c5be1e5ebec7d5bd14f71427d1e84f3dd0314c0f7b2291e5b200ac8c7c3b92560405160405180910390a45050565b6000610eea82610db2565b610f29576040517f08c379a0000000000000000000000000000000000000000000000000000000008152600401610f2090612660565b60405180910390fd5b6000610f3483610824565b90508073ffffffffffffffffffffffffffffffffffffffff168473ffffffffffffffffffffffffffffffffffffffff161480610fa357508373ffffffffffffffffffffffffffffffffffffffff16610f8b84610504565b73ffffffffffffffffffffffffffffffffffffffff16145b80610fb45750610fb38185610cb4565b5b91505092915050565b8273ffffffffffffffffffffffffffffffffffffffff16610fdd82610824565b73ffffffffffffffffffffffffffffffffffffffff1614611033576040517f08c379a000000000000000000000000000000000000000000000000000000000815260040161102a906126f2565b60405180910390fd5b600073ffffffffffffffffffffffffffffffffffffffff168273ffffffffffffffffffffffffffffffffffffffff1614156110a3576040517f08c379a000000000000000000000000000000000000000000000000000000000815260040161109a90612784565b60405180910390fd5b6110ae8383836115bf565b6110b9600082610e26565b6001600360008573ffffffffffffffffffffffffffffffffffffffff1673ffffffffffffffffffffffffffffffffffffffff1681526020019081526020016000206000828254611109919061249f565b925050819055506001600360008473ffffffffffffffffffffffffffffffffffffffff1673ffffffffffffffffffffffffffffffffffffffff168152602001908152602001600020600082825461116091906127a4565b92505081905550816002600083815260200190815260200160002060006101000a81548173ffffffffffffffffffffffffffffffffffffffff021916908373ffffffffffffffffffffffffffffffffffffffff160217905550808273ffffffffffffffffffffffffffffffffffffffff168473ffffffffffffffffffffffffffffffffffffffff167fddf252ad1be2c89b69c2b068fc378daa952ba7f163c4a11628f55a4df523b3ef60405160405180910390a4505050565b8173ffffffffffffffffffffffffffffffffffffffff168373ffffffffffffffffffffffffffffffffffffffff161415611288576040517f08c379a000000000000000000000000000000000000000000000000000000000815260040161127f90612846565b60405180910390fd5b80600560008573ffffffffffffffffffffffffffffffffffffffff1673ffffffffffffffffffffffffffffffffffffffff16815260200190815260200160002060008473ffffffffffffffffffffffffffffffffffffffff1673ffffffffffffffffffffffffffffffffffffffff16815260200190815260200160002060006101000a81548160ff0219169083151502179055508173ffffffffffffffffffffffffffffffffffffffff168373ffffffffffffffffffffffffffffffffffffffff167f17307eab39ab6107e8899845ad3d59bd9653f200f220920489ca2b5937696c31836040516113799190611a3c565b60405180910390a3505050565b600080600754428460405160200161139f9291906128cf565b6040516020818303038152906040528051906020012060001c6113c2919061292a565b905080915050919050565b6113e78282604051806020016040528060008152506115c4565b5050565b6113f6848484610fbd565b6114028484848461161f565b611441576040517f08c379a0000000000000000000000000000000000000000000000000000000008152600401611438906129cd565b60405180910390fd5b50505050565b606060405180602001604052806000815250905090565b606060008214156114a6576040518060400160405280600181526020017f300000000000000000000000000000000000000000000000000000000000000081525090506115ba565b600082905060005b600082146114d85780806114c190612332565b915050600a826114d191906129ed565b91506114ae565b60008167ffffffffffffffff8111156114f4576114f3611e3d565b5b6040519080825280601f01601f1916602001820160405280156115265781602001600182028036833780820191505090505b5090505b600085146115b35760018261153f919061249f565b9150600a8561154e919061292a565b603061155a91906127a4565b60f81b8183815181106115705761156f6122d4565b5b60200101907effffffffffffffffffffffffffffffffffffffffffffffffffffffffffffff1916908160001a905350600a856115ac91906129ed565b945061152a565b8093505050505b919050565b505050565b6115ce83836117a7565b6115db600084848461161f565b61161a576040517f08c379a0000000000000000000000000000000000000000000000000000000008152600401611611906129cd565b60405180910390fd5b505050565b60006116408473ffffffffffffffffffffffffffffffffffffffff16611975565b1561179a578373ffffffffffffffffffffffffffffffffffffffff1663150b7a02611669610e1e565b8786866040518563ffffffff1660e01b815260040161168b9493929190612a73565b6020604051808303816000875af19250505080156116c757506040513d601f19601f820116820180604052508101906116c49190612ad4565b60015b61174a573d80600081146116f7576040519150601f19603f3d011682016040523d82523d6000602084013e6116fc565b606091505b50600081511415611742576040517f08c379a0000000000000000000000000000000000000000000000000000000008152600401611739906129cd565b60405180910390fd5b805181602001fd5b63150b7a0260e01b7bffffffffffffffffffffffffffffffffffffffffffffffffffffffff1916817bffffffffffffffffffffffffffffffffffffffffffffffffffffffff19161491505061179f565b600190505b949350505050565b600073ffffffffffffffffffffffffffffffffffffffff168273ffffffffffffffffffffffffffffffffffffffff161415611817576040517f08c379a000000000000000000000000000000000000000000000000000000000815260040161180e90612b4d565b60405180910390fd5b61182081610db2565b15611860576040517f08c379a000000000000000000000000000000000000000000000000000000000815260040161185790612bb9565b60405180910390fd5b61186c600083836115bf565b6001600360008473ffffffffffffffffffffffffffffffffffffffff1673ffffffffffffffffffffffffffffffffffffffff16815260200190815260200160002060008282546118bc91906127a4565b92505081905550816002600083815260200190815260200160002060006101000a81548173ffffffffffffffffffffffffffffffffffffffff021916908373ffffffffffffffffffffffffffffffffffffffff160217905550808273ffffffffffffffffffffffffffffffffffffffff16600073ffffffffffffffffffffffffffffffffffffffff167fddf252ad1be2c89b69c2b068fc378daa952ba7f163c4a11628f55a4df523b3ef60405160405180910390a45050565b600080823b905060008111915050919050565b6000604051905090565b600080fd5b600080fd5b60007fffffffff0000000000000000000000000000000000000000000000000000000082169050919050565b6119d18161199c565b81146119dc57600080fd5b50565b6000813590506119ee816119c8565b92915050565b600060208284031215611a0a57611a09611992565b5b6000611a18848285016119df565b91505092915050565b60008115159050919050565b611a3681611a21565b82525050565b6000602082019050611a516000830184611a2d565b92915050565b600081519050919050565b600082825260208201905092915050565b60005b83811015611a91578082015181840152602081019050611a76565b83811115611aa0576000848401525b50505050565b6000601f19601f8301169050919050565b6000611ac282611a57565b611acc8185611a62565b9350611adc818560208601611a73565b611ae581611aa6565b840191505092915050565b60006020820190508181036000830152611b0a8184611ab7565b905092915050565b6000819050919050565b611b2581611b12565b8114611b3057600080fd5b50565b600081359050611b4281611b1c565b92915050565b600060208284031215611b5e57611b5d611992565b5b6000611b6c84828501611b33565b91505092915050565b600073ffffffffffffffffffffffffffffffffffffffff82169050919050565b6000611ba082611b75565b9050919050565b611bb081611b95565b82525050565b6000602082019050611bcb6000830184611ba7565b92915050565b611bda81611b95565b8114611be557600080fd5b50565b600081359050611bf781611bd1565b92915050565b60008060408385031215611c1457611c13611992565b5b6000611c2285828601611be8565b9250506020611c3385828601611b33565b9150509250929050565b600080600060608486031215611c5657611c55611992565b5b6000611c6486828701611be8565b9350506020611c7586828701611be8565b9250506040611c8686828701611b33565b9150509250925092565b600060208284031215611ca657611ca5611992565b5b6000611cb484828501611be8565b91505092915050565b600081519050919050565b600082825260208201905092915050565b6000819050602082019050919050565b611cf281611b12565b82525050565b6000611d048383611ce9565b60208301905092915050565b6000602082019050919050565b6000611d2882611cbd565b611d328185611cc8565b9350611d3d83611cd9565b8060005b83811015611d6e578151611d558882611cf8565b9750611d6083611d10565b925050600181019050611d41565b5085935050505092915050565b60006020820190508181036000830152611d958184611d1d565b905092915050565b611da681611b12565b82525050565b6000602082019050611dc16000830184611d9d565b92915050565b611dd081611a21565b8114611ddb57600080fd5b50565b600081359050611ded81611dc7565b92915050565b60008060408385031215611e0a57611e09611992565b5b6000611e1885828601611be8565b9250506020611e2985828601611dde565b9150509250929050565b600080fd5b600080fd5b7f4e487b7100000000000000000000000000000000000000000000000000000000600052604160045260246000fd5b611e7582611aa6565b810181811067ffffffffffffffff82111715611e9457611e93611e3d565b5b80604052505050565b6000611ea7611988565b9050611eb38282611e6c565b919050565b600067ffffffffffffffff821115611ed357611ed2611e3d565b5b611edc82611aa6565b9050602081019050919050565b82818337600083830152505050565b6000611f0b611f0684611eb8565b611e9d565b905082815260208101848484011115611f2757611f26611e38565b5b611f32848285611ee9565b509392505050565b600082601f830112611f4f57611f4e611e33565b5b8135611f5f848260208601611ef8565b91505092915050565b60008060008060808587031215611f8257611f81611992565b5b6000611f9087828801611be8565b9450506020611fa187828801611be8565b9350506040611fb287828801611b33565b925050606085013567ffffffffffffffff811115611fd357611fd2611997565b5b611fdf87828801611f3a565b91505092959194509250565b6000806040838503121561200257612001611992565b5b600061201085828601611be8565b925050602061202185828601611be8565b9150509250929050565b7f4e487b7100000000000000000000000000000000000000000000000000000000600052602260045260246000fd5b6000600282049050600182168061207257607f821691505b602082108114156120865761208561202b565b5b50919050565b7f4552433732313a20617070726f76656420717565727920666f72206e6f6e657860008201527f697374656e7420746f6b656e0000000000000000000000000000000000000000602082015250565b60006120e8602c83611a62565b91506120f38261208c565b604082019050919050565b60006020820190508181036000830152612117816120db565b9050919050565b7f4552433732313a20617070726f76616c20746f2063757272656e74206f776e6560008201527f7200000000000000000000000000000000000000000000000000000000000000602082015250565b600061217a602183611a62565b91506121858261211e565b604082019050919050565b600060208201905081810360008301526121a98161216d565b9050919050565b7f4552433732313a20617070726f76652063616c6c6572206973206e6f74206f7760008201527f6e6572206e6f7220617070726f76656420666f7220616c6c0000000000000000602082015250565b600061220c603883611a62565b9150612217826121b0565b604082019050919050565b6000602082019050818103600083015261223b816121ff565b9050919050565b7f4552433732313a207472616e736665722063616c6c6572206973206e6f74206f60008201527f776e6572206e6f7220617070726f766564000000000000000000000000000000602082015250565b600061229e603183611a62565b91506122a982612242565b604082019050919050565b600060208201905081810360008301526122cd81612291565b9050919050565b7f4e487b7100000000000000000000000000000000000000000000000000000000600052603260045260246000fd5b7f4e487b7100000000000000000000000000000000000000000000000000000000600052601160045260246000fd5b600061233d82611b12565b91507fffffffffffffffffffffffffffffffffffffffffffffffffffffffffffffffff8214156123705761236f612303565b5b600182019050919050565b7f4552433732313a206f776e657220717565727920666f72206e6f6e657869737460008201527f656e7420746f6b656e0000000000000000000000000000000000000000000000602082015250565b60006123d7602983611a62565b91506123e28261237b565b604082019050919050565b60006020820190508181036000830152612406816123ca565b9050919050565b7f4552433732313a2062616c616e636520717565727920666f7220746865207a6560008201527f726f206164647265737300000000000000000000000000000000000000000000602082015250565b6000612469602a83611a62565b91506124748261240d565b604082019050919050565b600060208201905081810360008301526124988161245c565b9050919050565b60006124aa82611b12565b91506124b583611b12565b9250828210156124c8576124c7612303565b5b828203905092915050565b60006040820190506124e86000830185611ba7565b6124f56020830184611d9d565b9392505050565b7f4552433732314d657461646174613a2055524920717565727920666f72206e6f60008201527f6e6578697374656e7420746f6b656e0000000000000000000000000000000000602082015250565b6000612558602f83611a62565b9150612563826124fc565b604082019050919050565b600060208201905081810360008301526125878161254b565b9050919050565b600081905092915050565b60006125a482611a57565b6125ae818561258e565b93506125be818560208601611a73565b80840191505092915050565b60006125d68285612599565b91506125e28284612599565b91508190509392505050565b7f4552433732313a206f70657261746f7220717565727920666f72206e6f6e657860008201527f697374656e7420746f6b656e0000000000000000000000000000000000000000602082015250565b600061264a602c83611a62565b9150612655826125ee565b604082019050919050565b600060208201905081810360008301526126798161263d565b9050919050565b7f4552433732313a207472616e73666572206f6620746f6b656e2074686174206960008201527f73206e6f74206f776e0000000000000000000000000000000000000000000000602082015250565b60006126dc602983611a62565b91506126e782612680565b604082019050919050565b6000602082019050818103600083015261270b816126cf565b9050919050565b7f4552433732313a207472616e7366657220746f20746865207a65726f2061646460008201527f7265737300000000000000000000000000000000000000000000000000000000602082015250565b600061276e602483611a62565b915061277982612712565b604082019050919050565b6000602082019050818103600083015261279d81612761565b9050919050565b60006127af82611b12565b91506127ba83611b12565b9250827fffffffffffffffffffffffffffffffffffffffffffffffffffffffffffffffff038211156127ef576127ee612303565b5b828201905092915050565b7f4552433732313a20617070726f766520746f2063616c6c657200000000000000600082015250565b6000612830601983611a62565b915061283b826127fa565b602082019050919050565b6000602082019050818103600083015261285f81612823565b9050919050565b6000819050919050565b61288161287c82611b12565b612866565b82525050565b60008160601b9050919050565b600061289f82612887565b9050919050565b60006128b182612894565b9050919050565b6128c96128c482611b95565b6128a6565b82525050565b60006128db8285612870565b6020820191506128eb82846128b8565b6014820191508190509392505050565b7f4e487b7100000000000000000000000000000000000000000000000000000000600052601260045260246000fd5b600061293582611b12565b915061294083611b12565b9250826129505761294f6128fb565b5b828206905092915050565b7f4552433732313a207472616e7366657220746f206e6f6e20455243373231526560008201527f63656976657220696d706c656d656e7465720000000000000000000000000000602082015250565b60006129b7603283611a62565b91506129c28261295b565b604082019050919050565b600060208201905081810360008301526129e6816129aa565b9050919050565b60006129f882611b12565b9150612a0383611b12565b925082612a1357612a126128fb565b5b828204905092915050565b600081519050919050565b600082825260208201905092915050565b6000612a4582612a1e565b612a4f8185612a29565b9350612a5f818560208601611a73565b612a6881611aa6565b840191505092915050565b6000608082019050612a886000830187611ba7565b612a956020830186611ba7565b612aa26040830185611d9d565b8181036060830152612ab48184612a3a565b905095945050505050565b600081519050612ace816119c8565b92915050565b600060208284031215612aea57612ae9611992565b5b6000612af884828501612abf565b91505092915050565b7f4552433732313a206d696e7420746f20746865207a65726f2061646472657373600082015250565b6000612b37602083611a62565b9150612b4282612b01565b602082019050919050565b60006020820190508181036000830152612b6681612b2a565b9050919050565b7f4552433732313a20746f6b656e20616c7265616479206d696e74656400000000600082015250565b6000612ba3601c83611a62565b9150612bae82612b6d565b602082019050919050565b60006020820190508181036000830152612bd281612b96565b905091905056fea26469706673582212203650472b6b7c9e273a70eb18857e79f0989eb289fa1753c4867403874e7c371d64736f6c634300080b0033",
  "immutableReferences": {},
  "source": "//SPDX-License-Identifier: MIT\r\npragma solidity 0.8.11;\r\nimport \"@openzeppelin/contracts/token/ERC721/ERC721.sol\";\r\nimport \"./IFlowerToken.sol\";\r\n\r\ncontract FlowerToken is ERC721, IFlowerToken {\r\n\r\n    struct Flower {\r\n        uint dna;\r\n    }\r\n\r\n    address private seedTokenAddress;\r\n    uint256 private modulus = 1000;\r\n    \r\n    Flower[] public flowers;    \r\n\r\n    constructor() ERC721(\"FlowerToken\", \"FLTN\") { }\r\n\r\n    event FlowerPlanted(address, uint256);\r\n    event DebugEvent(address, address);\r\n\r\n    modifier onlySeedToken () {\r\n        require(msg.sender == seedTokenAddress);\r\n        _;\r\n    }\r\n\r\n    function setSeedTokenAddress(address _seedTokenAddress) external { \r\n        seedTokenAddress = _seedTokenAddress;\r\n    }\r\n\r\n    function plant(address tokenOwner) external onlySeedToken {\r\n        Flower memory flower = Flower(getRandomDna(tokenOwner));\r\n        \r\n        flowers.push(flower);\r\n        uint256 flowerId = flowers.length - 1;\r\n        super._safeMint(tokenOwner, flowerId);\r\n        emit FlowerPlanted(msg.sender, flowerId);\r\n    }\r\n\r\n    function getRandomDna(address tokenOwner) private view returns(uint256) {\r\n        uint256 dna = uint256(keccak256(abi.encodePacked(block.timestamp, tokenOwner))) % modulus;\r\n        return dna;\r\n    }\r\n\r\n    function getAllFlowers(address tokenOwner) external view returns(uint[] memory){\r\n        uint totalTokens = balanceOf(tokenOwner);\r\n        uint[] memory tokenIds = new uint[](totalTokens);\r\n\r\n        uint counter = 0;\r\n        for(uint flowerId = 0; flowerId < flowers.length; flowerId++){\r\n            if (ownerOf(flowerId) == tokenOwner) {\r\n                tokenIds[counter] = flowerId;\r\n                counter++;\r\n            }\r\n\r\n            if (counter >= totalTokens){\r\n                break;\r\n            }\r\n        }\r\n\r\n        return tokenIds;\r\n    }\r\n}",
  "sourcePath": "F:\\Dev\\blockchain\\crypto-garden\\smart-contracts\\contracts\\FlowerToken.sol",
  "compiler": {
    "name": "solc",
    "version": "0.8.11+commit.d7f03943.Emscripten.clang"
  },
  "schemaVersion": "3.4.3",
  "updatedAt": "2021-12-28T03:23:38.197Z",
  "devdoc": {
    "kind": "dev",
    "methods": {
      "approve(address,uint256)": {
        "details": "See {IERC721-approve}."
      },
      "balanceOf(address)": {
        "details": "See {IERC721-balanceOf}."
      },
      "getApproved(uint256)": {
        "details": "See {IERC721-getApproved}."
      },
      "isApprovedForAll(address,address)": {
        "details": "See {IERC721-isApprovedForAll}."
      },
      "name()": {
        "details": "See {IERC721Metadata-name}."
      },
      "ownerOf(uint256)": {
        "details": "See {IERC721-ownerOf}."
      },
      "safeTransferFrom(address,address,uint256)": {
        "details": "See {IERC721-safeTransferFrom}."
      },
      "safeTransferFrom(address,address,uint256,bytes)": {
        "details": "See {IERC721-safeTransferFrom}."
      },
      "setApprovalForAll(address,bool)": {
        "details": "See {IERC721-setApprovalForAll}."
      },
      "supportsInterface(bytes4)": {
        "details": "See {IERC165-supportsInterface}."
      },
      "symbol()": {
        "details": "See {IERC721Metadata-symbol}."
      },
      "tokenURI(uint256)": {
        "details": "See {IERC721Metadata-tokenURI}."
      },
      "transferFrom(address,address,uint256)": {
        "details": "See {IERC721-transferFrom}."
      }
    },
    "version": 1
  },
  "userdoc": {
    "kind": "user",
    "methods": {},
    "version": 1
  }
}