{
  "contractName": "SeedToken",
  "abi": [
    {
      "inputs": [],
      "stateMutability": "nonpayable",
      "type": "constructor"
    },
    {
      "anonymous": false,
      "inputs": [
        {
          "indexed": true,
          "internalType": "address",
          "name": "owner",
          "type": "address"
        },
        {
          "indexed": true,
          "internalType": "address",
          "name": "spender",
          "type": "address"
        },
        {
          "indexed": false,
          "internalType": "uint256",
          "name": "value",
          "type": "uint256"
        }
      ],
      "name": "Approval",
      "type": "event"
    },
    {
      "anonymous": false,
      "inputs": [
        {
          "indexed": true,
          "internalType": "address",
          "name": "previousOwner",
          "type": "address"
        },
        {
          "indexed": true,
          "internalType": "address",
          "name": "newOwner",
          "type": "address"
        }
      ],
      "name": "OwnershipTransferred",
      "type": "event"
    },
    {
      "anonymous": false,
      "inputs": [
        {
          "indexed": false,
          "internalType": "address",
          "name": "",
          "type": "address"
        },
        {
          "indexed": false,
          "internalType": "uint256",
          "name": "",
          "type": "uint256"
        }
      ],
      "name": "SharedSeeds",
      "type": "event"
    },
    {
      "anonymous": false,
      "inputs": [
        {
          "indexed": true,
          "internalType": "address",
          "name": "from",
          "type": "address"
        },
        {
          "indexed": true,
          "internalType": "address",
          "name": "to",
          "type": "address"
        },
        {
          "indexed": false,
          "internalType": "uint256",
          "name": "value",
          "type": "uint256"
        }
      ],
      "name": "Transfer",
      "type": "event"
    },
    {
      "inputs": [
        {
          "internalType": "address",
          "name": "owner",
          "type": "address"
        },
        {
          "internalType": "address",
          "name": "spender",
          "type": "address"
        }
      ],
      "name": "allowance",
      "outputs": [
        {
          "internalType": "uint256",
          "name": "",
          "type": "uint256"
        }
      ],
      "stateMutability": "view",
      "type": "function"
    },
    {
      "inputs": [
        {
          "internalType": "address",
          "name": "spender",
          "type": "address"
        },
        {
          "internalType": "uint256",
          "name": "amount",
          "type": "uint256"
        }
      ],
      "name": "approve",
      "outputs": [
        {
          "internalType": "bool",
          "name": "",
          "type": "bool"
        }
      ],
      "stateMutability": "nonpayable",
      "type": "function"
    },
    {
      "inputs": [
        {
          "internalType": "address",
          "name": "account",
          "type": "address"
        }
      ],
      "name": "balanceOf",
      "outputs": [
        {
          "internalType": "uint256",
          "name": "",
          "type": "uint256"
        }
      ],
      "stateMutability": "view",
      "type": "function"
    },
    {
      "inputs": [],
      "name": "decimals",
      "outputs": [
        {
          "internalType": "uint8",
          "name": "",
          "type": "uint8"
        }
      ],
      "stateMutability": "view",
      "type": "function"
    },
    {
      "inputs": [
        {
          "internalType": "address",
          "name": "spender",
          "type": "address"
        },
        {
          "internalType": "uint256",
          "name": "subtractedValue",
          "type": "uint256"
        }
      ],
      "name": "decreaseAllowance",
      "outputs": [
        {
          "internalType": "bool",
          "name": "",
          "type": "bool"
        }
      ],
      "stateMutability": "nonpayable",
      "type": "function"
    },
    {
      "inputs": [
        {
          "internalType": "address",
          "name": "spender",
          "type": "address"
        },
        {
          "internalType": "uint256",
          "name": "addedValue",
          "type": "uint256"
        }
      ],
      "name": "increaseAllowance",
      "outputs": [
        {
          "internalType": "bool",
          "name": "",
          "type": "bool"
        }
      ],
      "stateMutability": "nonpayable",
      "type": "function"
    },
    {
      "inputs": [],
      "name": "name",
      "outputs": [
        {
          "internalType": "string",
          "name": "",
          "type": "string"
        }
      ],
      "stateMutability": "view",
      "type": "function"
    },
    {
      "inputs": [],
      "name": "owner",
      "outputs": [
        {
          "internalType": "address",
          "name": "",
          "type": "address"
        }
      ],
      "stateMutability": "view",
      "type": "function"
    },
    {
      "inputs": [],
      "name": "renounceOwnership",
      "outputs": [],
      "stateMutability": "nonpayable",
      "type": "function"
    },
    {
      "inputs": [],
      "name": "symbol",
      "outputs": [
        {
          "internalType": "string",
          "name": "",
          "type": "string"
        }
      ],
      "stateMutability": "view",
      "type": "function"
    },
    {
      "inputs": [],
      "name": "totalSupply",
      "outputs": [
        {
          "internalType": "uint256",
          "name": "",
          "type": "uint256"
        }
      ],
      "stateMutability": "view",
      "type": "function"
    },
    {
      "inputs": [
        {
          "internalType": "address",
          "name": "recipient",
          "type": "address"
        },
        {
          "internalType": "uint256",
          "name": "amount",
          "type": "uint256"
        }
      ],
      "name": "transfer",
      "outputs": [
        {
          "internalType": "bool",
          "name": "",
          "type": "bool"
        }
      ],
      "stateMutability": "nonpayable",
      "type": "function"
    },
    {
      "inputs": [
        {
          "internalType": "address",
          "name": "sender",
          "type": "address"
        },
        {
          "internalType": "address",
          "name": "recipient",
          "type": "address"
        },
        {
          "internalType": "uint256",
          "name": "amount",
          "type": "uint256"
        }
      ],
      "name": "transferFrom",
      "outputs": [
        {
          "internalType": "bool",
          "name": "",
          "type": "bool"
        }
      ],
      "stateMutability": "nonpayable",
      "type": "function"
    },
    {
      "inputs": [
        {
          "internalType": "address",
          "name": "newOwner",
          "type": "address"
        }
      ],
      "name": "transferOwnership",
      "outputs": [],
      "stateMutability": "nonpayable",
      "type": "function"
    },
    {
      "inputs": [
        {
          "internalType": "address",
          "name": "_flowerTokenAddress",
          "type": "address"
        }
      ],
      "name": "setFlowerTokenInstance",
      "outputs": [],
      "stateMutability": "nonpayable",
      "type": "function"
    },
    {
      "inputs": [
        {
          "internalType": "address",
          "name": "account",
          "type": "address"
        },
        {
          "internalType": "uint256",
          "name": "amount",
          "type": "uint256"
        }
      ],
      "name": "shareSeeds",
      "outputs": [],
      "stateMutability": "nonpayable",
      "type": "function"
    },
    {
      "inputs": [],
      "name": "plantSeed",
      "outputs": [],
      "stateMutability": "nonpayable",
      "type": "function"
    }
  ],
  "bytecode": "0x60806040523480156200001157600080fd5b506040518060400160405280600981526020017f53656564546f6b656e00000000000000000000000000000000000000000000008152506040518060400160405280600481526020017f5344544e00000000000000000000000000000000000000000000000000000000815250816003908051906020019062000096929190620001a6565b508060049080519060200190620000af929190620001a6565b505050620000d2620000c6620000d860201b60201c565b620000e060201b60201c565b620002bb565b600033905090565b6000600560009054906101000a900473ffffffffffffffffffffffffffffffffffffffff16905081600560006101000a81548173ffffffffffffffffffffffffffffffffffffffff021916908373ffffffffffffffffffffffffffffffffffffffff1602179055508173ffffffffffffffffffffffffffffffffffffffff168173ffffffffffffffffffffffffffffffffffffffff167f8be0079c531659141344cd1fd0a4f28419497f9722a3daafe3b4186f6b6457e060405160405180910390a35050565b828054620001b49062000285565b90600052602060002090601f016020900481019282620001d8576000855562000224565b82601f10620001f357805160ff191683800117855562000224565b8280016001018555821562000224579182015b828111156200022357825182559160200191906001019062000206565b5b50905062000233919062000237565b5090565b5b808211156200025257600081600090555060010162000238565b5090565b7f4e487b7100000000000000000000000000000000000000000000000000000000600052602260045260246000fd5b600060028204905060018216806200029e57607f821691505b60208210811415620002b557620002b462000256565b5b50919050565b611fcc80620002cb6000396000f3fe608060405234801561001057600080fd5b506004361061010b5760003560e01c8063715018a6116100a257806395d89b411161007157806395d89b4114610294578063a457c2d7146102b2578063a9059cbb146102e2578063dd62ed3e14610312578063f2fde38b146103425761010b565b8063715018a61461024657806374119a3814610250578063755bf19c1461025a5780638da5cb5b146102765761010b565b806323b872dd116100de57806323b872dd14610198578063313ce567146101c857806339509351146101e657806370a08231146102165761010b565b806306fdde0314610110578063095ea7b31461012e57806318160ddd1461015e57806322c534051461017c575b600080fd5b61011861035e565b60405161012591906114b9565b60405180910390f35b61014860048036038101906101439190611574565b6103f0565b60405161015591906115cf565b60405180910390f35b61016661040e565b60405161017391906115f9565b60405180910390f35b61019660048036038101906101919190611614565b610418565b005b6101b260048036038101906101ad9190611641565b61045c565b6040516101bf91906115cf565b60405180910390f35b6101d0610554565b6040516101dd91906116b0565b60405180910390f35b61020060048036038101906101fb9190611574565b61055d565b60405161020d91906115cf565b60405180910390f35b610230600480360381019061022b9190611614565b610609565b60405161023d91906115f9565b60405180910390f35b61024e610651565b005b6102586106d9565b005b610274600480360381019061026f9190611574565b6107be565b005b61027e610881565b60405161028b91906116da565b60405180910390f35b61029c6108ab565b6040516102a991906114b9565b60405180910390f35b6102cc60048036038101906102c79190611574565b61093d565b6040516102d991906115cf565b60405180910390f35b6102fc60048036038101906102f79190611574565b610a28565b60405161030991906115cf565b60405180910390f35b61032c600480360381019061032791906116f5565b610a46565b60405161033991906115f9565b60405180910390f35b61035c60048036038101906103579190611614565b610acd565b005b60606003805461036d90611764565b80601f016020809104026020016040519081016040528092919081815260200182805461039990611764565b80156103e65780601f106103bb576101008083540402835291602001916103e6565b820191906000526020600020905b8154815290600101906020018083116103c957829003601f168201915b5050505050905090565b60006104046103fd610bc5565b8484610bcd565b6001905092915050565b6000600254905090565b80600660006101000a81548173ffffffffffffffffffffffffffffffffffffffff021916908373ffffffffffffffffffffffffffffffffffffffff16021790555050565b6000610469848484610d98565b6000600160008673ffffffffffffffffffffffffffffffffffffffff1673ffffffffffffffffffffffffffffffffffffffff16815260200190815260200160002060006104b4610bc5565b73ffffffffffffffffffffffffffffffffffffffff1673ffffffffffffffffffffffffffffffffffffffff16815260200190815260200160002054905082811015610534576040517f08c379a000000000000000000000000000000000000000000000000000000000815260040161052b90611808565b60405180910390fd5b61054885610540610bc5565b858403610bcd565b60019150509392505050565b60006012905090565b60006105ff61056a610bc5565b848460016000610578610bc5565b73ffffffffffffffffffffffffffffffffffffffff1673ffffffffffffffffffffffffffffffffffffffff16815260200190815260200160002060008873ffffffffffffffffffffffffffffffffffffffff1673ffffffffffffffffffffffffffffffffffffffff168152602001908152602001600020546105fa9190611857565b610bcd565b6001905092915050565b60008060008373ffffffffffffffffffffffffffffffffffffffff1673ffffffffffffffffffffffffffffffffffffffff168152602001908152602001600020549050919050565b610659610bc5565b73ffffffffffffffffffffffffffffffffffffffff16610677610881565b73ffffffffffffffffffffffffffffffffffffffff16146106cd576040517f08c379a00000000000000000000000000000000000000000000000000000000081526004016106c4906118f9565b60405180910390fd5b6106d76000611019565b565b60006106e433610609565b11610724576040517f08c379a000000000000000000000000000000000000000000000000000000000815260040161071b9061198b565b60405180910390fd5b61072f3360016110df565b600660009054906101000a900473ffffffffffffffffffffffffffffffffffffffff1673ffffffffffffffffffffffffffffffffffffffff1663af775092336040518263ffffffff1660e01b815260040161078a91906116da565b600060405180830381600087803b1580156107a457600080fd5b505af11580156107b8573d6000803e3d6000fd5b50505050565b6107c6610bc5565b73ffffffffffffffffffffffffffffffffffffffff166107e4610881565b73ffffffffffffffffffffffffffffffffffffffff161461083a576040517f08c379a0000000000000000000000000000000000000000000000000000000008152600401610831906118f9565b60405180910390fd5b61084482826112b6565b7fdfc25611bf1c2825cffe673223ed08c715a3d37bf437b57fb01c2d52f81c377a82826040516108759291906119ab565b60405180910390a15050565b6000600560009054906101000a900473ffffffffffffffffffffffffffffffffffffffff16905090565b6060600480546108ba90611764565b80601f01602080910402602001604051908101604052809291908181526020018280546108e690611764565b80156109335780601f1061090857610100808354040283529160200191610933565b820191906000526020600020905b81548152906001019060200180831161091657829003601f168201915b5050505050905090565b6000806001600061094c610bc5565b73ffffffffffffffffffffffffffffffffffffffff1673ffffffffffffffffffffffffffffffffffffffff16815260200190815260200160002060008573ffffffffffffffffffffffffffffffffffffffff1673ffffffffffffffffffffffffffffffffffffffff16815260200190815260200160002054905082811015610a09576040517f08c379a0000000000000000000000000000000000000000000000000000000008152600401610a0090611a46565b60405180910390fd5b610a1d610a14610bc5565b85858403610bcd565b600191505092915050565b6000610a3c610a35610bc5565b8484610d98565b6001905092915050565b6000600160008473ffffffffffffffffffffffffffffffffffffffff1673ffffffffffffffffffffffffffffffffffffffff16815260200190815260200160002060008373ffffffffffffffffffffffffffffffffffffffff1673ffffffffffffffffffffffffffffffffffffffff16815260200190815260200160002054905092915050565b610ad5610bc5565b73ffffffffffffffffffffffffffffffffffffffff16610af3610881565b73ffffffffffffffffffffffffffffffffffffffff1614610b49576040517f08c379a0000000000000000000000000000000000000000000000000000000008152600401610b40906118f9565b60405180910390fd5b600073ffffffffffffffffffffffffffffffffffffffff168173ffffffffffffffffffffffffffffffffffffffff161415610bb9576040517f08c379a0000000000000000000000000000000000000000000000000000000008152600401610bb090611ad8565b60405180910390fd5b610bc281611019565b50565b600033905090565b600073ffffffffffffffffffffffffffffffffffffffff168373ffffffffffffffffffffffffffffffffffffffff161415610c3d576040517f08c379a0000000000000000000000000000000000000000000000000000000008152600401610c3490611b6a565b60405180910390fd5b600073ffffffffffffffffffffffffffffffffffffffff168273ffffffffffffffffffffffffffffffffffffffff161415610cad576040517f08c379a0000000000000000000000000000000000000000000000000000000008152600401610ca490611bfc565b60405180910390fd5b80600160008573ffffffffffffffffffffffffffffffffffffffff1673ffffffffffffffffffffffffffffffffffffffff16815260200190815260200160002060008473ffffffffffffffffffffffffffffffffffffffff1673ffffffffffffffffffffffffffffffffffffffff168152602001908152602001600020819055508173ffffffffffffffffffffffffffffffffffffffff168373ffffffffffffffffffffffffffffffffffffffff167f8c5be1e5ebec7d5bd14f71427d1e84f3dd0314c0f7b2291e5b200ac8c7c3b92583604051610d8b91906115f9565b60405180910390a3505050565b600073ffffffffffffffffffffffffffffffffffffffff168373ffffffffffffffffffffffffffffffffffffffff161415610e08576040517f08c379a0000000000000000000000000000000000000000000000000000000008152600401610dff90611c8e565b60405180910390fd5b600073ffffffffffffffffffffffffffffffffffffffff168273ffffffffffffffffffffffffffffffffffffffff161415610e78576040517f08c379a0000000000000000000000000000000000000000000000000000000008152600401610e6f90611d20565b60405180910390fd5b610e83838383611416565b60008060008573ffffffffffffffffffffffffffffffffffffffff1673ffffffffffffffffffffffffffffffffffffffff16815260200190815260200160002054905081811015610f09576040517f08c379a0000000000000000000000000000000000000000000000000000000008152600401610f0090611db2565b60405180910390fd5b8181036000808673ffffffffffffffffffffffffffffffffffffffff1673ffffffffffffffffffffffffffffffffffffffff16815260200190815260200160002081905550816000808573ffffffffffffffffffffffffffffffffffffffff1673ffffffffffffffffffffffffffffffffffffffff1681526020019081526020016000206000828254610f9c9190611857565b925050819055508273ffffffffffffffffffffffffffffffffffffffff168473ffffffffffffffffffffffffffffffffffffffff167fddf252ad1be2c89b69c2b068fc378daa952ba7f163c4a11628f55a4df523b3ef8460405161100091906115f9565b60405180910390a361101384848461141b565b50505050565b6000600560009054906101000a900473ffffffffffffffffffffffffffffffffffffffff16905081600560006101000a81548173ffffffffffffffffffffffffffffffffffffffff021916908373ffffffffffffffffffffffffffffffffffffffff1602179055508173ffffffffffffffffffffffffffffffffffffffff168173ffffffffffffffffffffffffffffffffffffffff167f8be0079c531659141344cd1fd0a4f28419497f9722a3daafe3b4186f6b6457e060405160405180910390a35050565b600073ffffffffffffffffffffffffffffffffffffffff168273ffffffffffffffffffffffffffffffffffffffff16141561114f576040517f08c379a000000000000000000000000000000000000000000000000000000000815260040161114690611e44565b60405180910390fd5b61115b82600083611416565b60008060008473ffffffffffffffffffffffffffffffffffffffff1673ffffffffffffffffffffffffffffffffffffffff168152602001908152602001600020549050818110156111e1576040517f08c379a00000000000000000000000000000000000000000000000000000000081526004016111d890611ed6565b60405180910390fd5b8181036000808573ffffffffffffffffffffffffffffffffffffffff1673ffffffffffffffffffffffffffffffffffffffff1681526020019081526020016000208190555081600260008282546112389190611ef6565b92505081905550600073ffffffffffffffffffffffffffffffffffffffff168373ffffffffffffffffffffffffffffffffffffffff167fddf252ad1be2c89b69c2b068fc378daa952ba7f163c4a11628f55a4df523b3ef8460405161129d91906115f9565b60405180910390a36112b18360008461141b565b505050565b600073ffffffffffffffffffffffffffffffffffffffff168273ffffffffffffffffffffffffffffffffffffffff161415611326576040517f08c379a000000000000000000000000000000000000000000000000000000000815260040161131d90611f76565b60405180910390fd5b61133260008383611416565b80600260008282546113449190611857565b92505081905550806000808473ffffffffffffffffffffffffffffffffffffffff1673ffffffffffffffffffffffffffffffffffffffff16815260200190815260200160002060008282546113999190611857565b925050819055508173ffffffffffffffffffffffffffffffffffffffff16600073ffffffffffffffffffffffffffffffffffffffff167fddf252ad1be2c89b69c2b068fc378daa952ba7f163c4a11628f55a4df523b3ef836040516113fe91906115f9565b60405180910390a36114126000838361141b565b5050565b505050565b505050565b600081519050919050565b600082825260208201905092915050565b60005b8381101561145a57808201518184015260208101905061143f565b83811115611469576000848401525b50505050565b6000601f19601f8301169050919050565b600061148b82611420565b611495818561142b565b93506114a581856020860161143c565b6114ae8161146f565b840191505092915050565b600060208201905081810360008301526114d38184611480565b905092915050565b600080fd5b600073ffffffffffffffffffffffffffffffffffffffff82169050919050565b600061150b826114e0565b9050919050565b61151b81611500565b811461152657600080fd5b50565b60008135905061153881611512565b92915050565b6000819050919050565b6115518161153e565b811461155c57600080fd5b50565b60008135905061156e81611548565b92915050565b6000806040838503121561158b5761158a6114db565b5b600061159985828601611529565b92505060206115aa8582860161155f565b9150509250929050565b60008115159050919050565b6115c9816115b4565b82525050565b60006020820190506115e460008301846115c0565b92915050565b6115f38161153e565b82525050565b600060208201905061160e60008301846115ea565b92915050565b60006020828403121561162a576116296114db565b5b600061163884828501611529565b91505092915050565b60008060006060848603121561165a576116596114db565b5b600061166886828701611529565b935050602061167986828701611529565b925050604061168a8682870161155f565b9150509250925092565b600060ff82169050919050565b6116aa81611694565b82525050565b60006020820190506116c560008301846116a1565b92915050565b6116d481611500565b82525050565b60006020820190506116ef60008301846116cb565b92915050565b6000806040838503121561170c5761170b6114db565b5b600061171a85828601611529565b925050602061172b85828601611529565b9150509250929050565b7f4e487b7100000000000000000000000000000000000000000000000000000000600052602260045260246000fd5b6000600282049050600182168061177c57607f821691505b602082108114156117905761178f611735565b5b50919050565b7f45524332303a207472616e7366657220616d6f756e742065786365656473206160008201527f6c6c6f77616e6365000000000000000000000000000000000000000000000000602082015250565b60006117f260288361142b565b91506117fd82611796565b604082019050919050565b60006020820190508181036000830152611821816117e5565b9050919050565b7f4e487b7100000000000000000000000000000000000000000000000000000000600052601160045260246000fd5b60006118628261153e565b915061186d8361153e565b9250827fffffffffffffffffffffffffffffffffffffffffffffffffffffffffffffffff038211156118a2576118a1611828565b5b828201905092915050565b7f4f776e61626c653a2063616c6c6572206973206e6f7420746865206f776e6572600082015250565b60006118e360208361142b565b91506118ee826118ad565b602082019050919050565b60006020820190508181036000830152611912816118d6565b9050919050565b7f596f7520646f6e2774206861766520656e6f75676820736565647320746f207060008201527f6c616e74206120666c6f77657200000000000000000000000000000000000000602082015250565b6000611975602d8361142b565b915061198082611919565b604082019050919050565b600060208201905081810360008301526119a481611968565b9050919050565b60006040820190506119c060008301856116cb565b6119cd60208301846115ea565b9392505050565b7f45524332303a2064656372656173656420616c6c6f77616e63652062656c6f7760008201527f207a65726f000000000000000000000000000000000000000000000000000000602082015250565b6000611a3060258361142b565b9150611a3b826119d4565b604082019050919050565b60006020820190508181036000830152611a5f81611a23565b9050919050565b7f4f776e61626c653a206e6577206f776e657220697320746865207a65726f206160008201527f6464726573730000000000000000000000000000000000000000000000000000602082015250565b6000611ac260268361142b565b9150611acd82611a66565b604082019050919050565b60006020820190508181036000830152611af181611ab5565b9050919050565b7f45524332303a20617070726f76652066726f6d20746865207a65726f2061646460008201527f7265737300000000000000000000000000000000000000000000000000000000602082015250565b6000611b5460248361142b565b9150611b5f82611af8565b604082019050919050565b60006020820190508181036000830152611b8381611b47565b9050919050565b7f45524332303a20617070726f766520746f20746865207a65726f20616464726560008201527f7373000000000000000000000000000000000000000000000000000000000000602082015250565b6000611be660228361142b565b9150611bf182611b8a565b604082019050919050565b60006020820190508181036000830152611c1581611bd9565b9050919050565b7f45524332303a207472616e736665722066726f6d20746865207a65726f20616460008201527f6472657373000000000000000000000000000000000000000000000000000000602082015250565b6000611c7860258361142b565b9150611c8382611c1c565b604082019050919050565b60006020820190508181036000830152611ca781611c6b565b9050919050565b7f45524332303a207472616e7366657220746f20746865207a65726f206164647260008201527f6573730000000000000000000000000000000000000000000000000000000000602082015250565b6000611d0a60238361142b565b9150611d1582611cae565b604082019050919050565b60006020820190508181036000830152611d3981611cfd565b9050919050565b7f45524332303a207472616e7366657220616d6f756e742065786365656473206260008201527f616c616e63650000000000000000000000000000000000000000000000000000602082015250565b6000611d9c60268361142b565b9150611da782611d40565b604082019050919050565b60006020820190508181036000830152611dcb81611d8f565b9050919050565b7f45524332303a206275726e2066726f6d20746865207a65726f2061646472657360008201527f7300000000000000000000000000000000000000000000000000000000000000602082015250565b6000611e2e60218361142b565b9150611e3982611dd2565b604082019050919050565b60006020820190508181036000830152611e5d81611e21565b9050919050565b7f45524332303a206275726e20616d6f756e7420657863656564732062616c616e60008201527f6365000000000000000000000000000000000000000000000000000000000000602082015250565b6000611ec060228361142b565b9150611ecb82611e64565b604082019050919050565b60006020820190508181036000830152611eef81611eb3565b9050919050565b6000611f018261153e565b9150611f0c8361153e565b925082821015611f1f57611f1e611828565b5b828203905092915050565b7f45524332303a206d696e7420746f20746865207a65726f206164647265737300600082015250565b6000611f60601f8361142b565b9150611f6b82611f2a565b602082019050919050565b60006020820190508181036000830152611f8f81611f53565b905091905056fea2646970667358221220a6d1fe929b52f90dc791cf64af9b3ac608383e4755ca3f43c0aefb01f3cc13ad64736f6c634300080b0033",
  "immutableReferences": {},
  "source": "//SPDX-License-Identifier: MIT\r\npragma solidity 0.8.11;\r\nimport \"@openzeppelin/contracts/token/ERC20/ERC20.sol\";\r\nimport \"@openzeppelin/contracts/token/ERC721/ERC721.sol\";\r\nimport \"@openzeppelin/contracts/access/Ownable.sol\";\r\nimport \"./ISeedToken.sol\";\r\nimport \"./IFlowerToken.sol\";\r\n\r\ncontract SeedToken is ERC20, Ownable, ISeedToken {\r\n    \r\n    IFlowerToken private flowerTokenInstance;\r\n    \r\n    event SharedSeeds(address, uint256);\r\n\r\n    constructor() ERC20(\"SeedToken\", \"SDTN\") { }\r\n    function setFlowerTokenInstance(address _flowerTokenAddress) external { \r\n        flowerTokenInstance = IFlowerToken(_flowerTokenAddress);\r\n    }\r\n\r\n    function shareSeeds(address account, uint256 amount) external onlyOwner {\r\n        _mint(account, amount);\r\n        emit SharedSeeds(account, amount);\r\n    }\r\n\r\n    function plantSeed() external {\r\n        require(super.balanceOf(msg.sender) > 0, \"You don't have enough seeds to plant a flower\");\r\n        super._burn(msg.sender, 1);\r\n        \r\n        flowerTokenInstance.plant(msg.sender);\r\n    }\r\n}",
  "sourcePath": "F:\\Dev\\blockchain\\crypto-garden\\smart-contracts\\contracts\\SeedToken.sol",
  "compiler": {
    "name": "solc",
    "version": "0.8.11+commit.d7f03943.Emscripten.clang"
  },
  "schemaVersion": "3.4.3",
  "updatedAt": "2021-12-28T03:23:38.255Z",
  "devdoc": {
    "kind": "dev",
    "methods": {
      "allowance(address,address)": {
        "details": "See {IERC20-allowance}."
      },
      "approve(address,uint256)": {
        "details": "See {IERC20-approve}. Requirements: - `spender` cannot be the zero address."
      },
      "balanceOf(address)": {
        "details": "See {IERC20-balanceOf}."
      },
      "decimals()": {
        "details": "Returns the number of decimals used to get its user representation. For example, if `decimals` equals `2`, a balance of `505` tokens should be displayed to a user as `5.05` (`505 / 10 ** 2`). Tokens usually opt for a value of 18, imitating the relationship between Ether and Wei. This is the value {ERC20} uses, unless this function is overridden; NOTE: This information is only used for _display_ purposes: it in no way affects any of the arithmetic of the contract, including {IERC20-balanceOf} and {IERC20-transfer}."
      },
      "decreaseAllowance(address,uint256)": {
        "details": "Atomically decreases the allowance granted to `spender` by the caller. This is an alternative to {approve} that can be used as a mitigation for problems described in {IERC20-approve}. Emits an {Approval} event indicating the updated allowance. Requirements: - `spender` cannot be the zero address. - `spender` must have allowance for the caller of at least `subtractedValue`."
      },
      "increaseAllowance(address,uint256)": {
        "details": "Atomically increases the allowance granted to `spender` by the caller. This is an alternative to {approve} that can be used as a mitigation for problems described in {IERC20-approve}. Emits an {Approval} event indicating the updated allowance. Requirements: - `spender` cannot be the zero address."
      },
      "name()": {
        "details": "Returns the name of the token."
      },
      "owner()": {
        "details": "Returns the address of the current owner."
      },
      "renounceOwnership()": {
        "details": "Leaves the contract without owner. It will not be possible to call `onlyOwner` functions anymore. Can only be called by the current owner. NOTE: Renouncing ownership will leave the contract without an owner, thereby removing any functionality that is only available to the owner."
      },
      "symbol()": {
        "details": "Returns the symbol of the token, usually a shorter version of the name."
      },
      "totalSupply()": {
        "details": "See {IERC20-totalSupply}."
      },
      "transfer(address,uint256)": {
        "details": "See {IERC20-transfer}. Requirements: - `recipient` cannot be the zero address. - the caller must have a balance of at least `amount`."
      },
      "transferFrom(address,address,uint256)": {
        "details": "See {IERC20-transferFrom}. Emits an {Approval} event indicating the updated allowance. This is not required by the EIP. See the note at the beginning of {ERC20}. Requirements: - `sender` and `recipient` cannot be the zero address. - `sender` must have a balance of at least `amount`. - the caller must have allowance for ``sender``'s tokens of at least `amount`."
      },
      "transferOwnership(address)": {
        "details": "Transfers ownership of the contract to a new account (`newOwner`). Can only be called by the current owner."
      }
    },
    "version": 1
  },
  "userdoc": {
    "kind": "user",
    "methods": {},
    "version": 1
  }
}