{
  "contractName": "FlowerToken",
  "abi": [
    {
      "inputs": [],
      "stateMutability": "nonpayable",
      "type": "constructor"
    },
    {
      "anonymous": false,
      "inputs": [
        {
          "indexed": true,
          "internalType": "address",
          "name": "owner",
          "type": "address"
        },
        {
          "indexed": true,
          "internalType": "address",
          "name": "approved",
          "type": "address"
        },
        {
          "indexed": true,
          "internalType": "uint256",
          "name": "tokenId",
          "type": "uint256"
        }
      ],
      "name": "Approval",
      "type": "event"
    },
    {
      "anonymous": false,
      "inputs": [
        {
          "indexed": true,
          "internalType": "address",
          "name": "owner",
          "type": "address"
        },
        {
          "indexed": true,
          "internalType": "address",
          "name": "operator",
          "type": "address"
        },
        {
          "indexed": false,
          "internalType": "bool",
          "name": "approved",
          "type": "bool"
        }
      ],
      "name": "ApprovalForAll",
      "type": "event"
    },
    {
      "anonymous": false,
      "inputs": [
        {
          "indexed": false,
          "internalType": "address",
          "name": "",
          "type": "address"
        },
        {
          "indexed": false,
          "internalType": "address",
          "name": "",
          "type": "address"
        }
      ],
      "name": "DebugEvent",
      "type": "event"
    },
    {
      "anonymous": false,
      "inputs": [
        {
          "indexed": false,
          "internalType": "address",
          "name": "",
          "type": "address"
        },
        {
          "indexed": false,
          "internalType": "uint256",
          "name": "",
          "type": "uint256"
        }
      ],
      "name": "FlowerPlanted",
      "type": "event"
    },
    {
      "anonymous": false,
      "inputs": [
        {
          "indexed": true,
          "internalType": "address",
          "name": "previousOwner",
          "type": "address"
        },
        {
          "indexed": true,
          "internalType": "address",
          "name": "newOwner",
          "type": "address"
        }
      ],
      "name": "OwnershipTransferred",
      "type": "event"
    },
    {
      "anonymous": false,
      "inputs": [
        {
          "indexed": true,
          "internalType": "address",
          "name": "from",
          "type": "address"
        },
        {
          "indexed": true,
          "internalType": "address",
          "name": "to",
          "type": "address"
        },
        {
          "indexed": true,
          "internalType": "uint256",
          "name": "tokenId",
          "type": "uint256"
        }
      ],
      "name": "Transfer",
      "type": "event"
    },
    {
      "inputs": [
        {
          "internalType": "address",
          "name": "to",
          "type": "address"
        },
        {
          "internalType": "uint256",
          "name": "tokenId",
          "type": "uint256"
        }
      ],
      "name": "approve",
      "outputs": [],
      "stateMutability": "nonpayable",
      "type": "function"
    },
    {
      "inputs": [
        {
          "internalType": "address",
          "name": "owner",
          "type": "address"
        }
      ],
      "name": "balanceOf",
      "outputs": [
        {
          "internalType": "uint256",
          "name": "",
          "type": "uint256"
        }
      ],
      "stateMutability": "view",
      "type": "function"
    },
    {
      "inputs": [
        {
          "internalType": "uint256",
          "name": "",
          "type": "uint256"
        }
      ],
      "name": "flowers",
      "outputs": [
        {
          "internalType": "uint256",
          "name": "dna",
          "type": "uint256"
        }
      ],
      "stateMutability": "view",
      "type": "function"
    },
    {
      "inputs": [
        {
          "internalType": "uint256",
          "name": "tokenId",
          "type": "uint256"
        }
      ],
      "name": "getApproved",
      "outputs": [
        {
          "internalType": "address",
          "name": "",
          "type": "address"
        }
      ],
      "stateMutability": "view",
      "type": "function"
    },
    {
      "inputs": [
        {
          "internalType": "address",
          "name": "owner",
          "type": "address"
        },
        {
          "internalType": "address",
          "name": "operator",
          "type": "address"
        }
      ],
      "name": "isApprovedForAll",
      "outputs": [
        {
          "internalType": "bool",
          "name": "",
          "type": "bool"
        }
      ],
      "stateMutability": "view",
      "type": "function"
    },
    {
      "inputs": [],
      "name": "name",
      "outputs": [
        {
          "internalType": "string",
          "name": "",
          "type": "string"
        }
      ],
      "stateMutability": "view",
      "type": "function"
    },
    {
      "inputs": [],
      "name": "owner",
      "outputs": [
        {
          "internalType": "address",
          "name": "",
          "type": "address"
        }
      ],
      "stateMutability": "view",
      "type": "function"
    },
    {
      "inputs": [
        {
          "internalType": "uint256",
          "name": "tokenId",
          "type": "uint256"
        }
      ],
      "name": "ownerOf",
      "outputs": [
        {
          "internalType": "address",
          "name": "",
          "type": "address"
        }
      ],
      "stateMutability": "view",
      "type": "function"
    },
    {
      "inputs": [],
      "name": "renounceOwnership",
      "outputs": [],
      "stateMutability": "nonpayable",
      "type": "function"
    },
    {
      "inputs": [
        {
          "internalType": "address",
          "name": "from",
          "type": "address"
        },
        {
          "internalType": "address",
          "name": "to",
          "type": "address"
        },
        {
          "internalType": "uint256",
          "name": "tokenId",
          "type": "uint256"
        }
      ],
      "name": "safeTransferFrom",
      "outputs": [],
      "stateMutability": "nonpayable",
      "type": "function"
    },
    {
      "inputs": [
        {
          "internalType": "address",
          "name": "from",
          "type": "address"
        },
        {
          "internalType": "address",
          "name": "to",
          "type": "address"
        },
        {
          "internalType": "uint256",
          "name": "tokenId",
          "type": "uint256"
        },
        {
          "internalType": "bytes",
          "name": "_data",
          "type": "bytes"
        }
      ],
      "name": "safeTransferFrom",
      "outputs": [],
      "stateMutability": "nonpayable",
      "type": "function"
    },
    {
      "inputs": [
        {
          "internalType": "address",
          "name": "operator",
          "type": "address"
        },
        {
          "internalType": "bool",
          "name": "approved",
          "type": "bool"
        }
      ],
      "name": "setApprovalForAll",
      "outputs": [],
      "stateMutability": "nonpayable",
      "type": "function"
    },
    {
      "inputs": [
        {
          "internalType": "bytes4",
          "name": "interfaceId",
          "type": "bytes4"
        }
      ],
      "name": "supportsInterface",
      "outputs": [
        {
          "internalType": "bool",
          "name": "",
          "type": "bool"
        }
      ],
      "stateMutability": "view",
      "type": "function"
    },
    {
      "inputs": [],
      "name": "symbol",
      "outputs": [
        {
          "internalType": "string",
          "name": "",
          "type": "string"
        }
      ],
      "stateMutability": "view",
      "type": "function"
    },
    {
      "inputs": [
        {
          "internalType": "uint256",
          "name": "tokenId",
          "type": "uint256"
        }
      ],
      "name": "tokenURI",
      "outputs": [
        {
          "internalType": "string",
          "name": "",
          "type": "string"
        }
      ],
      "stateMutability": "view",
      "type": "function"
    },
    {
      "inputs": [
        {
          "internalType": "address",
          "name": "from",
          "type": "address"
        },
        {
          "internalType": "address",
          "name": "to",
          "type": "address"
        },
        {
          "internalType": "uint256",
          "name": "tokenId",
          "type": "uint256"
        }
      ],
      "name": "transferFrom",
      "outputs": [],
      "stateMutability": "nonpayable",
      "type": "function"
    },
    {
      "inputs": [
        {
          "internalType": "address",
          "name": "newOwner",
          "type": "address"
        }
      ],
      "name": "transferOwnership",
      "outputs": [],
      "stateMutability": "nonpayable",
      "type": "function"
    },
    {
      "inputs": [
        {
          "internalType": "address",
          "name": "_seedTokenAddress",
          "type": "address"
        }
      ],
      "name": "setSeedTokenAddress",
      "outputs": [],
      "stateMutability": "nonpayable",
      "type": "function"
    },
    {
      "inputs": [
        {
          "internalType": "address",
          "name": "_tokenOwner",
          "type": "address"
        }
      ],
      "name": "plant",
      "outputs": [],
      "stateMutability": "nonpayable",
      "type": "function"
    },
    {
      "inputs": [
        {
          "internalType": "address",
          "name": "_tokenOwner",
          "type": "address"
        }
      ],
      "name": "getAllFlowers",
      "outputs": [
        {
          "internalType": "uint256[]",
          "name": "",
          "type": "uint256[]"
        }
      ],
      "stateMutability": "view",
      "type": "function"
    },
    {
      "inputs": [],
      "name": "kill",
      "outputs": [],
      "stateMutability": "nonpayable",
      "type": "function"
    }
  ],
  "bytecode": "0x60806040526305f5e1006008553480156200001957600080fd5b506040518060400160405280600b81526020017f466c6f776572546f6b656e0000000000000000000000000000000000000000008152506040518060400160405280600481526020017f464c544e0000000000000000000000000000000000000000000000000000000081525081600090805190602001906200009e929190620001ae565b508060019080519060200190620000b7929190620001ae565b505050620000da620000ce620000e060201b60201c565b620000e860201b60201c565b620002c3565b600033905090565b6000600660009054906101000a900473ffffffffffffffffffffffffffffffffffffffff16905081600660006101000a81548173ffffffffffffffffffffffffffffffffffffffff021916908373ffffffffffffffffffffffffffffffffffffffff1602179055508173ffffffffffffffffffffffffffffffffffffffff168173ffffffffffffffffffffffffffffffffffffffff167f8be0079c531659141344cd1fd0a4f28419497f9722a3daafe3b4186f6b6457e060405160405180910390a35050565b828054620001bc906200028d565b90600052602060002090601f016020900481019282620001e057600085556200022c565b82601f10620001fb57805160ff19168380011785556200022c565b828001600101855582156200022c579182015b828111156200022b5782518255916020019190600101906200020e565b5b5090506200023b91906200023f565b5090565b5b808211156200025a57600081600090555060010162000240565b5090565b7f4e487b7100000000000000000000000000000000000000000000000000000000600052602260045260246000fd5b60006002820490506001821680620002a657607f821691505b60208210811415620002bd57620002bc6200025e565b5b50919050565b61310880620002d36000396000f3fe608060405234801561001057600080fd5b50600436106101375760003560e01c806370a08231116100b8578063af7750921161007c578063af7750921461033a578063b88d4fde14610356578063c87b56dd14610372578063da0d52d9146103a2578063e985e9c5146103be578063f2fde38b146103ee57610137565b806370a08231146102a8578063715018a6146102d85780638da5cb5b146102e257806395d89b4114610300578063a22cb4651461031e57610137565b806329a1ed3f116100ff57806329a1ed3f146101f257806341c0e1b51461022257806342842e0e1461022c5780636352211e146102485780636e2b568a1461027857610137565b806301ffc9a71461013c57806306fdde031461016c578063081812fc1461018a578063095ea7b3146101ba57806323b872dd146101d6575b600080fd5b61015660048036038101906101519190611def565b61040a565b6040516101639190611e37565b60405180910390f35b6101746104ec565b6040516101819190611eeb565b60405180910390f35b6101a4600480360381019061019f9190611f43565b61057e565b6040516101b19190611fb1565b60405180910390f35b6101d460048036038101906101cf9190611ff8565b610603565b005b6101f060048036038101906101eb9190612038565b61071b565b005b61020c6004803603810190610207919061208b565b61077b565b6040516102199190612176565b60405180910390f35b61022a61087e565b005b61024660048036038101906102419190612038565b610913565b005b610262600480360381019061025d9190611f43565b610933565b60405161026f9190611fb1565b60405180910390f35b610292600480360381019061028d9190611f43565b6109e5565b60405161029f91906121a7565b60405180910390f35b6102c260048036038101906102bd919061208b565b610a0f565b6040516102cf91906121a7565b60405180910390f35b6102e0610ac7565b005b6102ea610b4f565b6040516102f79190611fb1565b60405180910390f35b610308610b79565b6040516103159190611eeb565b60405180910390f35b610338600480360381019061033391906121ee565b610c0b565b005b610354600480360381019061034f919061208b565b610c21565b005b610370600480360381019061036b9190612363565b610d28565b005b61038c60048036038101906103879190611f43565b610d8a565b6040516103999190611eeb565b60405180910390f35b6103bc60048036038101906103b7919061208b565b610e31565b005b6103d860048036038101906103d391906123e6565b610ef1565b6040516103e59190611e37565b60405180910390f35b6104086004803603810190610403919061208b565b610f85565b005b60007f80ac58cd000000000000000000000000000000000000000000000000000000007bffffffffffffffffffffffffffffffffffffffffffffffffffffffff1916827bffffffffffffffffffffffffffffffffffffffffffffffffffffffff191614806104d557507f5b5e139f000000000000000000000000000000000000000000000000000000007bffffffffffffffffffffffffffffffffffffffffffffffffffffffff1916827bffffffffffffffffffffffffffffffffffffffffffffffffffffffff1916145b806104e557506104e48261107d565b5b9050919050565b6060600080546104fb90612455565b80601f016020809104026020016040519081016040528092919081815260200182805461052790612455565b80156105745780601f1061054957610100808354040283529160200191610574565b820191906000526020600020905b81548152906001019060200180831161055757829003601f168201915b5050505050905090565b6000610589826110e7565b6105c8576040517f08c379a00000000000000000000000000000000000000000000000000000000081526004016105bf906124f9565b60405180910390fd5b6004600083815260200190815260200160002060009054906101000a900473ffffffffffffffffffffffffffffffffffffffff169050919050565b600061060e82610933565b90508073ffffffffffffffffffffffffffffffffffffffff168373ffffffffffffffffffffffffffffffffffffffff16141561067f576040517f08c379a00000000000000000000000000000000000000000000000000000000081526004016106769061258b565b60405180910390fd5b8073ffffffffffffffffffffffffffffffffffffffff1661069e611153565b73ffffffffffffffffffffffffffffffffffffffff1614806106cd57506106cc816106c7611153565b610ef1565b5b61070c576040517f08c379a00000000000000000000000000000000000000000000000000000000081526004016107039061261d565b60405180910390fd5b610716838361115b565b505050565b61072c610726611153565b82611214565b61076b576040517f08c379a0000000000000000000000000000000000000000000000000000000008152600401610762906126af565b60405180910390fd5b6107768383836112f2565b505050565b6060600061078883610a0f565b905060008167ffffffffffffffff8111156107a6576107a5612238565b5b6040519080825280602002602001820160405280156107d45781602001602082028036833780820191505090505b5090506000805b600980549050811015610872578573ffffffffffffffffffffffffffffffffffffffff1661080882610933565b73ffffffffffffffffffffffffffffffffffffffff1614156108535780838381518110610838576108376126cf565b5b602002602001018181525050818061084f9061272d565b9250505b83821061085f57610872565b808061086a9061272d565b9150506107db565b50819350505050919050565b610886611153565b73ffffffffffffffffffffffffffffffffffffffff166108a4610b4f565b73ffffffffffffffffffffffffffffffffffffffff16146108fa576040517f08c379a00000000000000000000000000000000000000000000000000000000081526004016108f1906127c2565b60405180910390fd5b3373ffffffffffffffffffffffffffffffffffffffff16ff5b61092e83838360405180602001604052806000815250610d28565b505050565b6000806002600084815260200190815260200160002060009054906101000a900473ffffffffffffffffffffffffffffffffffffffff169050600073ffffffffffffffffffffffffffffffffffffffff168173ffffffffffffffffffffffffffffffffffffffff1614156109dc576040517f08c379a00000000000000000000000000000000000000000000000000000000081526004016109d390612854565b60405180910390fd5b80915050919050565b600981815481106109f557600080fd5b906000526020600020016000915090508060000154905081565b60008073ffffffffffffffffffffffffffffffffffffffff168273ffffffffffffffffffffffffffffffffffffffff161415610a80576040517f08c379a0000000000000000000000000000000000000000000000000000000008152600401610a77906128e6565b60405180910390fd5b600360008373ffffffffffffffffffffffffffffffffffffffff1673ffffffffffffffffffffffffffffffffffffffff168152602001908152602001600020549050919050565b610acf611153565b73ffffffffffffffffffffffffffffffffffffffff16610aed610b4f565b73ffffffffffffffffffffffffffffffffffffffff1614610b43576040517f08c379a0000000000000000000000000000000000000000000000000000000008152600401610b3a906127c2565b60405180910390fd5b610b4d600061154e565b565b6000600660009054906101000a900473ffffffffffffffffffffffffffffffffffffffff16905090565b606060018054610b8890612455565b80601f0160208091040260200160405190810160405280929190818152602001828054610bb490612455565b8015610c015780601f10610bd657610100808354040283529160200191610c01565b820191906000526020600020905b815481529060010190602001808311610be457829003601f168201915b5050505050905090565b610c1d610c16611153565b8383611614565b5050565b600760009054906101000a900473ffffffffffffffffffffffffffffffffffffffff1673ffffffffffffffffffffffffffffffffffffffff163373ffffffffffffffffffffffffffffffffffffffff1614610c7b57600080fd5b60006040518060200160405280610c9184611781565b81525090506009819080600181540180825580915050600190039060005260206000200160009091909190915060008201518160000155505060006001600980549050610cde9190612906565b9050610cea83826117c8565b7ff6b78b0a72f2114b727be945f413099ee159c52f2e57e9210bb3c2ae6d2f8f663382604051610d1b92919061293a565b60405180910390a1505050565b610d39610d33611153565b83611214565b610d78576040517f08c379a0000000000000000000000000000000000000000000000000000000008152600401610d6f906126af565b60405180910390fd5b610d84848484846117e6565b50505050565b6060610d95826110e7565b610dd4576040517f08c379a0000000000000000000000000000000000000000000000000000000008152600401610dcb906129d5565b60405180910390fd5b6000610dde611842565b90506000815111610dfe5760405180602001604052806000815250610e29565b80610e0884611859565b604051602001610e19929190612a31565b6040516020818303038152906040525b915050919050565b610e39611153565b73ffffffffffffffffffffffffffffffffffffffff16610e57610b4f565b73ffffffffffffffffffffffffffffffffffffffff1614610ead576040517f08c379a0000000000000000000000000000000000000000000000000000000008152600401610ea4906127c2565b60405180910390fd5b80600760006101000a81548173ffffffffffffffffffffffffffffffffffffffff021916908373ffffffffffffffffffffffffffffffffffffffff16021790555050565b6000600560008473ffffffffffffffffffffffffffffffffffffffff1673ffffffffffffffffffffffffffffffffffffffff16815260200190815260200160002060008373ffffffffffffffffffffffffffffffffffffffff1673ffffffffffffffffffffffffffffffffffffffff16815260200190815260200160002060009054906101000a900460ff16905092915050565b610f8d611153565b73ffffffffffffffffffffffffffffffffffffffff16610fab610b4f565b73ffffffffffffffffffffffffffffffffffffffff1614611001576040517f08c379a0000000000000000000000000000000000000000000000000000000008152600401610ff8906127c2565b60405180910390fd5b600073ffffffffffffffffffffffffffffffffffffffff168173ffffffffffffffffffffffffffffffffffffffff161415611071576040517f08c379a000000000000000000000000000000000000000000000000000000000815260040161106890612ac7565b60405180910390fd5b61107a8161154e565b50565b60007f01ffc9a7000000000000000000000000000000000000000000000000000000007bffffffffffffffffffffffffffffffffffffffffffffffffffffffff1916827bffffffffffffffffffffffffffffffffffffffffffffffffffffffff1916149050919050565b60008073ffffffffffffffffffffffffffffffffffffffff166002600084815260200190815260200160002060009054906101000a900473ffffffffffffffffffffffffffffffffffffffff1673ffffffffffffffffffffffffffffffffffffffff1614159050919050565b600033905090565b816004600083815260200190815260200160002060006101000a81548173ffffffffffffffffffffffffffffffffffffffff021916908373ffffffffffffffffffffffffffffffffffffffff160217905550808273ffffffffffffffffffffffffffffffffffffffff166111ce83610933565b73ffffffffffffffffffffffffffffffffffffffff167f8c5be1e5ebec7d5bd14f71427d1e84f3dd0314c0f7b2291e5b200ac8c7c3b92560405160405180910390a45050565b600061121f826110e7565b61125e576040517f08c379a000000000000000000000000000000000000000000000000000000000815260040161125590612b59565b60405180910390fd5b600061126983610933565b90508073ffffffffffffffffffffffffffffffffffffffff168473ffffffffffffffffffffffffffffffffffffffff1614806112d857508373ffffffffffffffffffffffffffffffffffffffff166112c08461057e565b73ffffffffffffffffffffffffffffffffffffffff16145b806112e957506112e88185610ef1565b5b91505092915050565b8273ffffffffffffffffffffffffffffffffffffffff1661131282610933565b73ffffffffffffffffffffffffffffffffffffffff1614611368576040517f08c379a000000000000000000000000000000000000000000000000000000000815260040161135f90612beb565b60405180910390fd5b600073ffffffffffffffffffffffffffffffffffffffff168273ffffffffffffffffffffffffffffffffffffffff1614156113d8576040517f08c379a00000000000000000000000000000000000000000000000000000000081526004016113cf90612c7d565b60405180910390fd5b6113e38383836119ba565b6113ee60008261115b565b6001600360008573ffffffffffffffffffffffffffffffffffffffff1673ffffffffffffffffffffffffffffffffffffffff168152602001908152602001600020600082825461143e9190612906565b925050819055506001600360008473ffffffffffffffffffffffffffffffffffffffff1673ffffffffffffffffffffffffffffffffffffffff16815260200190815260200160002060008282546114959190612c9d565b92505081905550816002600083815260200190815260200160002060006101000a81548173ffffffffffffffffffffffffffffffffffffffff021916908373ffffffffffffffffffffffffffffffffffffffff160217905550808273ffffffffffffffffffffffffffffffffffffffff168473ffffffffffffffffffffffffffffffffffffffff167fddf252ad1be2c89b69c2b068fc378daa952ba7f163c4a11628f55a4df523b3ef60405160405180910390a4505050565b6000600660009054906101000a900473ffffffffffffffffffffffffffffffffffffffff16905081600660006101000a81548173ffffffffffffffffffffffffffffffffffffffff021916908373ffffffffffffffffffffffffffffffffffffffff1602179055508173ffffffffffffffffffffffffffffffffffffffff168173ffffffffffffffffffffffffffffffffffffffff167f8be0079c531659141344cd1fd0a4f28419497f9722a3daafe3b4186f6b6457e060405160405180910390a35050565b8173ffffffffffffffffffffffffffffffffffffffff168373ffffffffffffffffffffffffffffffffffffffff161415611683576040517f08c379a000000000000000000000000000000000000000000000000000000000815260040161167a90612d3f565b60405180910390fd5b80600560008573ffffffffffffffffffffffffffffffffffffffff1673ffffffffffffffffffffffffffffffffffffffff16815260200190815260200160002060008473ffffffffffffffffffffffffffffffffffffffff1673ffffffffffffffffffffffffffffffffffffffff16815260200190815260200160002060006101000a81548160ff0219169083151502179055508173ffffffffffffffffffffffffffffffffffffffff168373ffffffffffffffffffffffffffffffffffffffff167f17307eab39ab6107e8899845ad3d59bd9653f200f220920489ca2b5937696c31836040516117749190611e37565b60405180910390a3505050565b600080600854428460405160200161179a929190612dc8565b6040516020818303038152906040528051906020012060001c6117bd9190612e23565b905080915050919050565b6117e28282604051806020016040528060008152506119bf565b5050565b6117f18484846112f2565b6117fd84848484611a1a565b61183c576040517f08c379a000000000000000000000000000000000000000000000000000000000815260040161183390612ec6565b60405180910390fd5b50505050565b606060405180602001604052806000815250905090565b606060008214156118a1576040518060400160405280600181526020017f300000000000000000000000000000000000000000000000000000000000000081525090506119b5565b600082905060005b600082146118d35780806118bc9061272d565b915050600a826118cc9190612ee6565b91506118a9565b60008167ffffffffffffffff8111156118ef576118ee612238565b5b6040519080825280601f01601f1916602001820160405280156119215781602001600182028036833780820191505090505b5090505b600085146119ae5760018261193a9190612906565b9150600a856119499190612e23565b60306119559190612c9d565b60f81b81838151811061196b5761196a6126cf565b5b60200101907effffffffffffffffffffffffffffffffffffffffffffffffffffffffffffff1916908160001a905350600a856119a79190612ee6565b9450611925565b8093505050505b919050565b505050565b6119c98383611ba2565b6119d66000848484611a1a565b611a15576040517f08c379a0000000000000000000000000000000000000000000000000000000008152600401611a0c90612ec6565b60405180910390fd5b505050565b6000611a3b8473ffffffffffffffffffffffffffffffffffffffff16611d70565b15611b95578373ffffffffffffffffffffffffffffffffffffffff1663150b7a02611a64611153565b8786866040518563ffffffff1660e01b8152600401611a869493929190612f6c565b6020604051808303816000875af1925050508015611ac257506040513d601f19601f82011682018060405250810190611abf9190612fcd565b60015b611b45573d8060008114611af2576040519150601f19603f3d011682016040523d82523d6000602084013e611af7565b606091505b50600081511415611b3d576040517f08c379a0000000000000000000000000000000000000000000000000000000008152600401611b3490612ec6565b60405180910390fd5b805181602001fd5b63150b7a0260e01b7bffffffffffffffffffffffffffffffffffffffffffffffffffffffff1916817bffffffffffffffffffffffffffffffffffffffffffffffffffffffff191614915050611b9a565b600190505b949350505050565b600073ffffffffffffffffffffffffffffffffffffffff168273ffffffffffffffffffffffffffffffffffffffff161415611c12576040517f08c379a0000000000000000000000000000000000000000000000000000000008152600401611c0990613046565b60405180910390fd5b611c1b816110e7565b15611c5b576040517f08c379a0000000000000000000000000000000000000000000000000000000008152600401611c52906130b2565b60405180910390fd5b611c67600083836119ba565b6001600360008473ffffffffffffffffffffffffffffffffffffffff1673ffffffffffffffffffffffffffffffffffffffff1681526020019081526020016000206000828254611cb79190612c9d565b92505081905550816002600083815260200190815260200160002060006101000a81548173ffffffffffffffffffffffffffffffffffffffff021916908373ffffffffffffffffffffffffffffffffffffffff160217905550808273ffffffffffffffffffffffffffffffffffffffff16600073ffffffffffffffffffffffffffffffffffffffff167fddf252ad1be2c89b69c2b068fc378daa952ba7f163c4a11628f55a4df523b3ef60405160405180910390a45050565b600080823b905060008111915050919050565b6000604051905090565b600080fd5b600080fd5b60007fffffffff0000000000000000000000000000000000000000000000000000000082169050919050565b611dcc81611d97565b8114611dd757600080fd5b50565b600081359050611de981611dc3565b92915050565b600060208284031215611e0557611e04611d8d565b5b6000611e1384828501611dda565b91505092915050565b60008115159050919050565b611e3181611e1c565b82525050565b6000602082019050611e4c6000830184611e28565b92915050565b600081519050919050565b600082825260208201905092915050565b60005b83811015611e8c578082015181840152602081019050611e71565b83811115611e9b576000848401525b50505050565b6000601f19601f8301169050919050565b6000611ebd82611e52565b611ec78185611e5d565b9350611ed7818560208601611e6e565b611ee081611ea1565b840191505092915050565b60006020820190508181036000830152611f058184611eb2565b905092915050565b6000819050919050565b611f2081611f0d565b8114611f2b57600080fd5b50565b600081359050611f3d81611f17565b92915050565b600060208284031215611f5957611f58611d8d565b5b6000611f6784828501611f2e565b91505092915050565b600073ffffffffffffffffffffffffffffffffffffffff82169050919050565b6000611f9b82611f70565b9050919050565b611fab81611f90565b82525050565b6000602082019050611fc66000830184611fa2565b92915050565b611fd581611f90565b8114611fe057600080fd5b50565b600081359050611ff281611fcc565b92915050565b6000806040838503121561200f5761200e611d8d565b5b600061201d85828601611fe3565b925050602061202e85828601611f2e565b9150509250929050565b60008060006060848603121561205157612050611d8d565b5b600061205f86828701611fe3565b935050602061207086828701611fe3565b925050604061208186828701611f2e565b9150509250925092565b6000602082840312156120a1576120a0611d8d565b5b60006120af84828501611fe3565b91505092915050565b600081519050919050565b600082825260208201905092915050565b6000819050602082019050919050565b6120ed81611f0d565b82525050565b60006120ff83836120e4565b60208301905092915050565b6000602082019050919050565b6000612123826120b8565b61212d81856120c3565b9350612138836120d4565b8060005b8381101561216957815161215088826120f3565b975061215b8361210b565b92505060018101905061213c565b5085935050505092915050565b600060208201905081810360008301526121908184612118565b905092915050565b6121a181611f0d565b82525050565b60006020820190506121bc6000830184612198565b92915050565b6121cb81611e1c565b81146121d657600080fd5b50565b6000813590506121e8816121c2565b92915050565b6000806040838503121561220557612204611d8d565b5b600061221385828601611fe3565b9250506020612224858286016121d9565b9150509250929050565b600080fd5b600080fd5b7f4e487b7100000000000000000000000000000000000000000000000000000000600052604160045260246000fd5b61227082611ea1565b810181811067ffffffffffffffff8211171561228f5761228e612238565b5b80604052505050565b60006122a2611d83565b90506122ae8282612267565b919050565b600067ffffffffffffffff8211156122ce576122cd612238565b5b6122d782611ea1565b9050602081019050919050565b82818337600083830152505050565b6000612306612301846122b3565b612298565b90508281526020810184848401111561232257612321612233565b5b61232d8482856122e4565b509392505050565b600082601f83011261234a5761234961222e565b5b813561235a8482602086016122f3565b91505092915050565b6000806000806080858703121561237d5761237c611d8d565b5b600061238b87828801611fe3565b945050602061239c87828801611fe3565b93505060406123ad87828801611f2e565b925050606085013567ffffffffffffffff8111156123ce576123cd611d92565b5b6123da87828801612335565b91505092959194509250565b600080604083850312156123fd576123fc611d8d565b5b600061240b85828601611fe3565b925050602061241c85828601611fe3565b9150509250929050565b7f4e487b7100000000000000000000000000000000000000000000000000000000600052602260045260246000fd5b6000600282049050600182168061246d57607f821691505b6020821081141561248157612480612426565b5b50919050565b7f4552433732313a20617070726f76656420717565727920666f72206e6f6e657860008201527f697374656e7420746f6b656e0000000000000000000000000000000000000000602082015250565b60006124e3602c83611e5d565b91506124ee82612487565b604082019050919050565b60006020820190508181036000830152612512816124d6565b9050919050565b7f4552433732313a20617070726f76616c20746f2063757272656e74206f776e6560008201527f7200000000000000000000000000000000000000000000000000000000000000602082015250565b6000612575602183611e5d565b915061258082612519565b604082019050919050565b600060208201905081810360008301526125a481612568565b9050919050565b7f4552433732313a20617070726f76652063616c6c6572206973206e6f74206f7760008201527f6e6572206e6f7220617070726f76656420666f7220616c6c0000000000000000602082015250565b6000612607603883611e5d565b9150612612826125ab565b604082019050919050565b60006020820190508181036000830152612636816125fa565b9050919050565b7f4552433732313a207472616e736665722063616c6c6572206973206e6f74206f60008201527f776e6572206e6f7220617070726f766564000000000000000000000000000000602082015250565b6000612699603183611e5d565b91506126a48261263d565b604082019050919050565b600060208201905081810360008301526126c88161268c565b9050919050565b7f4e487b7100000000000000000000000000000000000000000000000000000000600052603260045260246000fd5b7f4e487b7100000000000000000000000000000000000000000000000000000000600052601160045260246000fd5b600061273882611f0d565b91507fffffffffffffffffffffffffffffffffffffffffffffffffffffffffffffffff82141561276b5761276a6126fe565b5b600182019050919050565b7f4f776e61626c653a2063616c6c6572206973206e6f7420746865206f776e6572600082015250565b60006127ac602083611e5d565b91506127b782612776565b602082019050919050565b600060208201905081810360008301526127db8161279f565b9050919050565b7f4552433732313a206f776e657220717565727920666f72206e6f6e657869737460008201527f656e7420746f6b656e0000000000000000000000000000000000000000000000602082015250565b600061283e602983611e5d565b9150612849826127e2565b604082019050919050565b6000602082019050818103600083015261286d81612831565b9050919050565b7f4552433732313a2062616c616e636520717565727920666f7220746865207a6560008201527f726f206164647265737300000000000000000000000000000000000000000000602082015250565b60006128d0602a83611e5d565b91506128db82612874565b604082019050919050565b600060208201905081810360008301526128ff816128c3565b9050919050565b600061291182611f0d565b915061291c83611f0d565b92508282101561292f5761292e6126fe565b5b828203905092915050565b600060408201905061294f6000830185611fa2565b61295c6020830184612198565b9392505050565b7f4552433732314d657461646174613a2055524920717565727920666f72206e6f60008201527f6e6578697374656e7420746f6b656e0000000000000000000000000000000000602082015250565b60006129bf602f83611e5d565b91506129ca82612963565b604082019050919050565b600060208201905081810360008301526129ee816129b2565b9050919050565b600081905092915050565b6000612a0b82611e52565b612a1581856129f5565b9350612a25818560208601611e6e565b80840191505092915050565b6000612a3d8285612a00565b9150612a498284612a00565b91508190509392505050565b7f4f776e61626c653a206e6577206f776e657220697320746865207a65726f206160008201527f6464726573730000000000000000000000000000000000000000000000000000602082015250565b6000612ab1602683611e5d565b9150612abc82612a55565b604082019050919050565b60006020820190508181036000830152612ae081612aa4565b9050919050565b7f4552433732313a206f70657261746f7220717565727920666f72206e6f6e657860008201527f697374656e7420746f6b656e0000000000000000000000000000000000000000602082015250565b6000612b43602c83611e5d565b9150612b4e82612ae7565b604082019050919050565b60006020820190508181036000830152612b7281612b36565b9050919050565b7f4552433732313a207472616e73666572206f6620746f6b656e2074686174206960008201527f73206e6f74206f776e0000000000000000000000000000000000000000000000602082015250565b6000612bd5602983611e5d565b9150612be082612b79565b604082019050919050565b60006020820190508181036000830152612c0481612bc8565b9050919050565b7f4552433732313a207472616e7366657220746f20746865207a65726f2061646460008201527f7265737300000000000000000000000000000000000000000000000000000000602082015250565b6000612c67602483611e5d565b9150612c7282612c0b565b604082019050919050565b60006020820190508181036000830152612c9681612c5a565b9050919050565b6000612ca882611f0d565b9150612cb383611f0d565b9250827fffffffffffffffffffffffffffffffffffffffffffffffffffffffffffffffff03821115612ce857612ce76126fe565b5b828201905092915050565b7f4552433732313a20617070726f766520746f2063616c6c657200000000000000600082015250565b6000612d29601983611e5d565b9150612d3482612cf3565b602082019050919050565b60006020820190508181036000830152612d5881612d1c565b9050919050565b6000819050919050565b612d7a612d7582611f0d565b612d5f565b82525050565b60008160601b9050919050565b6000612d9882612d80565b9050919050565b6000612daa82612d8d565b9050919050565b612dc2612dbd82611f90565b612d9f565b82525050565b6000612dd48285612d69565b602082019150612de48284612db1565b6014820191508190509392505050565b7f4e487b7100000000000000000000000000000000000000000000000000000000600052601260045260246000fd5b6000612e2e82611f0d565b9150612e3983611f0d565b925082612e4957612e48612df4565b5b828206905092915050565b7f4552433732313a207472616e7366657220746f206e6f6e20455243373231526560008201527f63656976657220696d706c656d656e7465720000000000000000000000000000602082015250565b6000612eb0603283611e5d565b9150612ebb82612e54565b604082019050919050565b60006020820190508181036000830152612edf81612ea3565b9050919050565b6000612ef182611f0d565b9150612efc83611f0d565b925082612f0c57612f0b612df4565b5b828204905092915050565b600081519050919050565b600082825260208201905092915050565b6000612f3e82612f17565b612f488185612f22565b9350612f58818560208601611e6e565b612f6181611ea1565b840191505092915050565b6000608082019050612f816000830187611fa2565b612f8e6020830186611fa2565b612f9b6040830185612198565b8181036060830152612fad8184612f33565b905095945050505050565b600081519050612fc781611dc3565b92915050565b600060208284031215612fe357612fe2611d8d565b5b6000612ff184828501612fb8565b91505092915050565b7f4552433732313a206d696e7420746f20746865207a65726f2061646472657373600082015250565b6000613030602083611e5d565b915061303b82612ffa565b602082019050919050565b6000602082019050818103600083015261305f81613023565b9050919050565b7f4552433732313a20746f6b656e20616c7265616479206d696e74656400000000600082015250565b600061309c601c83611e5d565b91506130a782613066565b602082019050919050565b600060208201905081810360008301526130cb8161308f565b905091905056fea26469706673582212209cad3f0ddb6e862040c1ba4241037a2aa1c000e490fd447baed17af41eed2ef864736f6c634300080b0033",
  "immutableReferences": {},
  "source": "//SPDX-License-Identifier: MIT\r\npragma solidity 0.8.11;\r\nimport \"@openzeppelin/contracts/token/ERC721/ERC721.sol\";\r\nimport \"@openzeppelin/contracts/access/Ownable.sol\";\r\nimport \"./IFlowerToken.sol\";\r\n\r\ncontract FlowerToken is ERC721, IFlowerToken, Ownable {\r\n\r\n    struct Flower {\r\n        uint dna;\r\n    }\r\n\r\n    address private seedTokenAddress;\r\n    uint256 private modulus = 100000000;\r\n    \r\n    Flower[] public flowers;    \r\n\r\n    constructor() ERC721(\"FlowerToken\", \"FLTN\") { }\r\n\r\n    event FlowerPlanted(address, uint256);\r\n    event DebugEvent(address, address);\r\n\r\n    modifier onlySeedToken () {\r\n        require(msg.sender == seedTokenAddress);\r\n        _;\r\n    }\r\n\r\n    function setSeedTokenAddress(address _seedTokenAddress) external onlyOwner { \r\n        seedTokenAddress = _seedTokenAddress;\r\n    }\r\n\r\n    function plant(address _tokenOwner) external onlySeedToken {\r\n        Flower memory flower = Flower(getRandomDna(_tokenOwner));\r\n        \r\n        flowers.push(flower);\r\n        uint256 flowerId = flowers.length - 1;\r\n        super._safeMint(_tokenOwner, flowerId);\r\n        emit FlowerPlanted(msg.sender, flowerId);\r\n    }\r\n\r\n    function getRandomDna(address _tokenOwner) private view returns(uint256) {\r\n        uint256 dna = uint256(keccak256(abi.encodePacked(block.timestamp, _tokenOwner))) % modulus;\r\n        return dna;\r\n    }\r\n\r\n    function getAllFlowers(address _tokenOwner) external view returns(uint[] memory){\r\n        uint totalTokens = balanceOf(_tokenOwner);\r\n        uint[] memory tokenIds = new uint[](totalTokens);\r\n\r\n        uint counter = 0;\r\n        for(uint flowerId = 0; flowerId < flowers.length; flowerId++){\r\n            if (ownerOf(flowerId) == _tokenOwner) {\r\n                tokenIds[counter] = flowerId;\r\n                counter++;\r\n            }\r\n\r\n            if (counter >= totalTokens){\r\n                break;\r\n            }\r\n        }\r\n\r\n        return tokenIds;\r\n    }\r\n\r\n    function kill() external onlyOwner {\r\n        selfdestruct(payable(msg.sender));\r\n    }\r\n}",
  "sourcePath": "F:\\Dev\\blockchain\\crypto-garden\\smart-contracts\\contracts\\FlowerToken.sol",
  "compiler": {
    "name": "solc",
    "version": "0.8.11+commit.d7f03943.Emscripten.clang"
  },
  "schemaVersion": "3.4.3",
  "updatedAt": "2022-01-03T12:05:22.944Z",
  "devdoc": {
    "kind": "dev",
    "methods": {
      "approve(address,uint256)": {
        "details": "See {IERC721-approve}."
      },
      "balanceOf(address)": {
        "details": "See {IERC721-balanceOf}."
      },
      "getApproved(uint256)": {
        "details": "See {IERC721-getApproved}."
      },
      "isApprovedForAll(address,address)": {
        "details": "See {IERC721-isApprovedForAll}."
      },
      "name()": {
        "details": "See {IERC721Metadata-name}."
      },
      "owner()": {
        "details": "Returns the address of the current owner."
      },
      "ownerOf(uint256)": {
        "details": "See {IERC721-ownerOf}."
      },
      "renounceOwnership()": {
        "details": "Leaves the contract without owner. It will not be possible to call `onlyOwner` functions anymore. Can only be called by the current owner. NOTE: Renouncing ownership will leave the contract without an owner, thereby removing any functionality that is only available to the owner."
      },
      "safeTransferFrom(address,address,uint256)": {
        "details": "See {IERC721-safeTransferFrom}."
      },
      "safeTransferFrom(address,address,uint256,bytes)": {
        "details": "See {IERC721-safeTransferFrom}."
      },
      "setApprovalForAll(address,bool)": {
        "details": "See {IERC721-setApprovalForAll}."
      },
      "supportsInterface(bytes4)": {
        "details": "See {IERC165-supportsInterface}."
      },
      "symbol()": {
        "details": "See {IERC721Metadata-symbol}."
      },
      "tokenURI(uint256)": {
        "details": "See {IERC721Metadata-tokenURI}."
      },
      "transferFrom(address,address,uint256)": {
        "details": "See {IERC721-transferFrom}."
      },
      "transferOwnership(address)": {
        "details": "Transfers ownership of the contract to a new account (`newOwner`). Can only be called by the current owner."
      }
    },
    "version": 1
  },
  "userdoc": {
    "kind": "user",
    "methods": {},
    "version": 1
  }
}